:020000040800F2
:1000000020040020450100085D0800089F07000843
:1000100059080008CB040008F90D00080000000092
:10002000000000000000000000000000350A000889
:100030007106000800000000E5080008210B000818
:100040005F0100085F0100085F0100085F01000810
:100050005F0100085F0100085F0100085F01000800
:100060005F0100085F0100085F0100085F010008F0
:100070005F0100085F0100085F0100085F010008E0
:100080005F0100085F0100085F0100085F010008D0
:100090005F0100085F0100085F0100085F010008C0
:1000A0005F0100085F0100085F0100085F010008B0
:1000B0005F0100085F0100085F0100085F010008A0
:1000C0005F0100085F0100085F0100085F01000890
:1000D0005F0100085F0100085F0100085F01000880
:1000E0005F0100085F0100085F0100085F01000870
:1000F0005F0100085F0100085F0100085F01000860
:100100005F0100085F0100085F0100085F0100084F
:100110005F0100085F0100085F0100085F0100083F
:100120005F0100085F0100085F0100085F0100082F
:10013000DFF80CD000F02EF8004800471D10000832
:10014000200400200648804706480047FEE7FEE7F7
:10015000FEE7FEE7FEE7FEE7FEE7FEE7FEE7FEE777
:10016000250B00083101000830B50B460146002080
:100170002022012409E021FA02F59D4205D303FA69
:1001800002F5491B04FA02F52844151EA2F10102EA
:10019000F1DC30BD064C074D06E0E06840F001039D
:1001A00094E8070098471034AC42F6D3FFF7C4FF39
:1001B000B4100008D410000821B1826842F0010296
:1001C000826003E0826822F001028260704721B100
:1001D000826842F48072826003E0826822F4807256
:1001E00082607047014600208A6802F004020AB16A
:1001F000012000E000207047014600208A6802F0DC
:1002000008020AB1012000E00020704730B5024624
:100210000020002350680F4C20400D790C6844EA00
:1002200005242043506090680B4C2040D1E90254D3
:100230002C434D7944EA450420439060D06A20F471
:1002400070000C7C641EE4B2234340EA0350D06289
:1002500030BD0000FFFEF0FFFDF7F1FF00B591B0EB
:100260000121084600F04CFB0121480200F068FB28
:10027000334800F039F933480190334802900020A8
:100280000390012004900020059006904FF48070A8
:100290000790800008902020099000020A9000201A
:1002A0000B9001A9264800F0C5F90121244800F06F
:1002B0000EF901208DF8350000200F904FF46020DA
:1002C0000E9000200C9001208DF8400000208DF849
:1002D00034000CA91B484C38FFF798FF4FF44040FE
:1002E00000F002FB052301220B2116484C3800F0D8
:1002F0002DF8012113484C38FFF769FF01211148FF
:100300004C38FFF759FF0F484C3800F07BF800BF1E
:100310000C484C38FFF770FF0028F9D109484C38D9
:1003200000F080F800BF07484C38FFF75BFF00285B
:10033000F9D1012103484C3800F069F811B000BD33
:10034000080002404C24014014000020F0B504468F
:100350000D4600200021092D11DDE068A5F10A06F7
:1003600006EB4607072606FA07F18843A5F10A06B9
:1003700006EB460603FA06F10843E0600CE020694C
:1003800005EB4507072606FA07F1884305EB450606
:1003900003FA06F108432061072A0FDA606B561E44
:1003A00006EB86071F2606FA07F18843561E06EB62
:1003B000860605FA06F10843606322E00D2A0FDA8B
:1003C000206BD61F06EB86071F2606FA07F1884327
:1003D000D61F06EB860605FA06F10843206310E0F7
:1003E000E06AA2F10D0606EB86071F2606FA07F162
:1003F0008843A2F10D0606EB860605FA06F10843CE
:10040000E062F0BD816841F008018160704721B170
:10041000826842F4A002826003E0826822F4A002B3
:1004200082607047816841F004018160704700007C
:1004300008B50121102000F083FA00208DF8030098
:100440000220ADF800006946014800F012F908BD2D
:100450000010014010B5FFF7EBFFFFF7FFFE10BDE6
:100460000EB50121102000F05BFA40F2E730ADF844
:1004700004004720ADF800006946084800F0A0FBE2
:100480000121064800F07EFB01221146034800F0DE
:1004900088FB0121014800F078FB0EBD00100040F0
:1004A00008B54FF4E06000F013FA36208DF8000034
:1004B00000208DF8010003208DF8020001208DF846
:1004C0000300684600F0CCF908BD00BFFEE721B18B
:1004D000026842F00102026004E002684FF6FE7317
:1004E0001A4002607047000001684FF6FE7211402A
:1004F00001600021016041608160C1604B49884218
:1005000008D14A490839496841F00F01474A083A79
:1005100051608AE045491431884208D1434908397D
:10052000496841F0F001414A083A51607DE03F4995
:100530002831884208D13D490839496841F4706141
:100540003A4A083A516070E038493C31884208D153
:1005500036490839496841F47041344A083A5160D3
:1005600063E032495031884208D13049083949683E
:1005700041F470212D4A083A516056E02B4964310C
:10058000884208D129490839496841F47001274A4D
:10059000083A516049E025497831884208D1234919
:1005A0000839496841F07061204A083A51603CE0DE
:1005B0001F49884206D1011F096841F00F01021F3F
:1005C000116032E01A491431884208D11849091FD4
:1005D000096841F0F001164A121F116025E0144924
:1005E0002831884208D11249091F096841F4706115
:1005F0000F4A121F116018E00D493C31884208D1A2
:100600000B49091F096841F47041094A121F116022
:100610000BE007495031884207D10549091F096895
:1006200041F47021024A121F116070470800024015
:100630000804024010B50022026847F6F0739A439E
:100640000C6A8B6823430C6923434C6923438C69F0
:100650002343CC6923434C6A23438C6A23431A43C4
:100660000260CB6843600B6883604B68C36010BD59
:1006700070472DE9F04102460025002600200023A6
:100680000024002791F803C00CF00F0591F803C077
:100690000CF0100CBCF1000F03D091F802C04CEA32
:1006A000050591F800C0BCF1000F31D0146800209E
:1006B0002BE04FF0010C0CFA00F3B1F800C00CEA8B
:1006C00003069E4220D183004FF00F0C0CFA03F773
:1006D000BC4305FA03FC4CEA040491F803C0BCF1E6
:1006E000280F06D14FF0010C0CFA00FCC2F814C020
:1006F0000AE091F803C0BCF1480F05D14FF0010C9E
:100700000CFA00FCC2F810C0401C0828D1D31460B9
:10071000B1F800C0BCF1FF0F34DD546800202EE0BA
:1007200000F1080C4FF0010808FA0CF3B1F800C012
:100730000CEA03069E4221D183004FF00F0C0CFA05
:1007400003F7BC4305FA03FC4CEA040491F803C028
:10075000BCF1280F05D100F1080C08FA0CF8C2F81A
:10076000148091F803C0BCF1480F07D100F1080CC8
:100770004FF0010808FA0CF8C2F81080401C082855
:10078000CED35460BDE8F0810246002093680B4050
:100790000BB1012000E0002070470161704700BFED
:1007A000FEE7000008B50121102000F0C9F8012182
:1007B000102000F0C5F842F20200ADF8000004205D
:1007C0008DF8030069460448FFF753FF6946024865
:1007D000FFF74FFF08BD00000010014070B5044650
:1007E0000D4629462046FFF7CFFF012808D100BF5C
:1007F00029462046FFF7C8FF0128F9D0012070BD27
:100800000020FCE708B50121082000F099F823201A
:10081000ADF8000010208DF8030003208DF80200D1
:1008200069460C48FFF725FF69460A48FFF721FF94
:1008300069460848FFF71DFF01210648FFF7ADFF95
:1008400020210448FFF7A9FF02210248FFF7A5FF76
:1008500008BD0000000C014000BFFEE7704700002B
:1008600070B5002100230F22C47804B3154C24680E
:1008700004F4E064C4F5E064210AC1F10403CA4051
:10088000447804FA03F184781440214309010E4CA2
:100890000678A155047804F01F050124AC400578C2
:1008A0006D11AD0005F1E025C5F8004109E00478BF
:1008B00004F01F050124AC40044D0678761145F87C
:1008C000264070BD0CED00E000E400E080E100E0B7
:1008D00002490143024A1160704700000000FA0516
:1008E0000CED00E07047000001460020034A50680C
:1008F00020F4404008435060704700000010024060
:1009000029B1064A52690243044B5A6104E0034A82
:1009100052698243014B5A61704700000010024047
:1009200029B1064AD2690243044BDA6104E0034A62
:10093000D2698243014BDA61704700000010024027
:1009400029B1064A92690243044B9A6104E0034AC2
:1009500092698243014B9A61704700000010024087
:1009600030B500210022002400232D4D6D6805F0D4
:100970000C0121B1042905D0082923D105E0294D16
:10098000056022E0274D05601FE0254D6D6805F4E8
:100990007012234D6D6805F48034022505EB9242F8
:1009A0001CB9214D554305600BE01D4D6D6805F4E4
:1009B00000351DB11C4D5543056002E0194D5543EE
:1009C000056002E0174D056000BF00BF144D6D6863
:1009D00005F0F0010909154D6B5C0568DD404560C7
:1009E0000F4D6D6805F4E061090A104D6B5C4568B8
:1009F000DD4085600A4D6D6805F46051C90A0B4DF4
:100A00006B5C4568DD40C560054D6D6805F440418F
:100A1000890B074D6B5CC568B5FBF3F5056130BD0F
:100A20000010024000127A0000093D000000002082
:100A300010000020704710B500F002F810BD000053
:100A40000CB50020019000903348006840F48030DD
:100A50003149086000BF3048006800F40030009061
:100A60000198401C0190009818B90198B0F5A06F4A
:100A7000F1D12948006800F4003010B10120009045
:100A800001E0002000900098012843D1234800682D
:100A900040F01000214908600846006820F003007B
:100AA00008600846006840F0020008601A48406884
:100AB000194948600846406848600846406840F464
:100AC000806048600846406820F47C104860084612
:100AD000406840F4E81048600846006840F08070C4
:100AE000086000BF0C48006800F000700028F9D0D2
:100AF0000948406820F003000749486008464068FC
:100B000040F00200486000BF0348406800F00C005D
:100B10000828F9D10CBD000000100240002002405E
:100B20007047000010B51348006840F001001149FB
:100B3000086008464068104908400E494860084669
:100B400000680E4908400B4908600846006820F418
:100B5000802008600846406820F4FE0048604FF49A
:100B60001F008860FFF767FF4FF0006004490860CE
:100B700010BD0000001002400000FFF8FFFFF6FE6D
:100B800008ED00E0CA430282704721B1028842F0BA
:100B90000102028004E002884FF6FE731A400280D0
:100BA00070471AB183890B43838102E083898B43A9
:100BB0008381704710B5FFF773FCFFF751FC10BD40
:100BC000002202881D4B98420ED01D4B98420BD03C
:100BD000B0F1804F08D01B4B984205D01A4B984279
:100BE00002D01A4B984204D14FF68F731A404B88AB
:100BF0001A43174B984207D0164B984204D04FF631
:100C0000FF431A40CB881A4302808B8883850B8868
:100C100003850A4B98420BD0094B984208D00E4BE3
:100C2000984205D00D4B984202D00D4B984201D10D
:100C30000B7A03860123838270470000002C014059
:100C4000003401400004004000080040000C004057
:100C500000100040001400400040014000440140EA
:100C60000048014021B1828942F40052828104E0AF
:100C700082894DF6FF731A408281704700B585B0B6
:100C800001210420FFF75CFE01218803FFF758FED5
:100C90004FF40070ADF8100018208DF813000320F9
:100CA0008DF8120004A91348FFF7E3FC4FF48060AD
:100CB000ADF8100004208DF8130004A90D48FFF7CB
:100CC000D8FC4FF4165000900020ADF80400ADF8A9
:100CD0000600ADF80800ADF80C000C20ADF80A00D5
:100CE0006946054800F018F801210348FFF7BAFFEC
:100CF00005B000BD00080140003801400246002058
:100D0000B1F5007F00D100BF13880B400BB101206B
:100D100000E00020704700002DE9F04786B005464E
:100D20000E460024A24600BFA1460027B08900B1AC
:100D300000BF2F462C8A4CF6FF700440F088044315
:100D40002C82AC894EF6F3100440B08831890843F8
:100D5000718908430443AC81AC8A4FF6FF400440DC
:100D6000B0890443AC8201A8FFF7FAFD1F4887420F
:100D700002D1DDF810A001E0DDF80CA0A88900F494
:100D8000004040B10AEBCA0000EB0A10316849008C
:100D9000B0FBF1F807E00AEBCA0000EB0A1031687B
:100DA0008900B0FBF1F86420B8FBF0F004012009E1
:100DB000642101FB1089A88900F4004040B1322071
:100DC00000EBC900B0FBF1F000F00700044308E0BD
:100DD000322000EB09106421B0FBF1F000F00F00AD
:100DE00004432C8106B0BDE8F087000000380140C4
:100DF000C1F308028280704700BFFEE770B5044669
:100E00000D4629462046FFF7F3FF00BF802120460C
:100E1000FFF774FF0028F9D070BD70B506460C4688
:100E2000002500BF615D3046FFF7E8FF6D1C605D87
:100E30000028F7D100BF40213046FFF75FFF0028B0
:100E4000F9D070BD0FB4054B10B503A9044A029840
:100E500000F018F810BC5DF814FB0000D90F000872
:100E60001800002002E008C8121F08C1002AFAD1A9
:100E700070477047002001E001C1121F002AFBD11A
:100E8000704700002DE9FF4F89B09B4604460025BE
:100E900006E025280BD05A460B999047641C6D1C20
:100EA00020780028F5D10DB02846BDE8F08F002746
:100EB000B8460122474900E0074314F8013F203BB0
:100EC00002FA03F00842F7D120782E2819D114F83D
:100ED000010F47F004072A280ED06FF02F02207868
:100EE000A0F1300109290CD808EB880102EB41017F
:100EF00000EB0108641CF2E70A98641C50F8048BAC
:100F00000A9020780028CED0642808D0692806D01E
:100F100075281ED05A460B9990476D1C58E00A99C7
:100F20004FF00A0901C90A91002802DA40422D2136
:100F300002E0390504D52B218DF82010012103E0B2
:100F4000F90704D02021F7E78A4608AE0DE000211A
:100F5000FAE70A994FF00A0901C90A91F7E74946E9
:100F6000FFF702F9303106F8011D0028F7D1ADEB8B
:100F7000060000F12009780701D44FF00108C845A8
:100F800002DDA8EB090000E000208046002706E013
:100F900008A85A46C05D0B9990476D1C7F1C5745A9
:100FA000F6DB04E030205A460B9990476D1CB8F1EF
:100FB0000001A8F10108F5DC05E016F8010B5A461E
:100FC0000B9990476D1CB9F10001A9F10109F4DCFE
:100FD000641C65E70928010070B504460D46E1B2BE
:100FE0000548FFF705FF00BF80210348FFF786FE95
:100FF0000028F9D0204670BD0038014010B5FF210F
:101000000548FFF7FBFEFF210348FFF7F7FEFF212E
:101010000148FFF7F3FE10BD003801400024FFF740
:10102000F1FBFFF7BFFBFFF729FEFFF7C3FDFFF75B
:1010300011FA15A11648FFF7F0FE16A0FFF702FF00
:10104000214617A0FFF7FEFE1CE002211548FFF71E
:10105000C5FB012807D1601C84B2214612A0FFF70E
:10106000F1FEFFF7CBFF4FF400510E48FFF7B6FB40
:10107000012807D1601E84B221460BA0FFF7E2FED3
:10108000FFF7BCFFE1E700004A53444B464A00002B
:1010900000380140B3CCD0F2B2E2CAD40000000064
:1010A00025640000001001406E312E76616C3D25F4
:1010B00064000000D4100008000000201C000000A4
:1010C000640E0008F01000081C000020040400005A
:1010D000740E000800000000010203040102030472
:1010E00006070809020406080000000000000000CE
:0400000508000131BD
:00000001FF
