:020000040800F2
:10000000582400204501000809040008E9030008FD
:10001000050400082F0200082B0C00080000000057
:10002000000000000000000000000000250900089A
:1000300033020008000000000B040008110A000849
:100040005F0100085F0100085F0100085F01000810
:100050005F0100085F0100085F0100085F01000800
:100060005F0100085F0100085F0100085F010008F0
:100070005F0100085F0100085F0100085F010008E0
:100080005F0100085F0100085F0100085F010008D0
:100090005F0100085F0100085F0100085F010008C0
:1000A0005F0100085F0100085F0100085F010008B0
:1000B0005F0100085F0100085F0100085F010008A0
:1000C0005F0100085F0100085F0100085F01000890
:1000D0005F0100085F0100085F0100085F01000880
:1000E0005F0100085F0100085F0100085F01000870
:1000F0005F0100085F0100085F0100085F01000860
:100100005F0100085F0100085F0100085F0100084F
:100110005F0100085F0100085F0100085F0100083F
:100120005F0100085F0100085F0100085F0100082F
:10013000DFF80CD000F04AF80048004775150008B9
:10014000582400200648804706480047FEE7FEE79F
:10015000FEE7FEE7FEE7FEE7FEE7FEE7FEE7FEE777
:10016000150A0008310100082DE9F05F054600205E
:1001700092469B4688460646814640241BE0284618
:1001800041464746224600F042F853465A46C01AB6
:10019000914110D311461846224600F029F82D1A35
:1001A00067EB01084F4622460120002100F020F8AD
:1001B00017EB00094E41201EA4F10104DFDC484684
:1001C00031462A464346BDE8F09F0000064C074DE5
:1001D00006E0E06840F0010394E807009847103417
:1001E000AC42F6D3FFF7A8FF6C1600088C16000887
:1001F000202A04DB203A00FA02F1002070479140E7
:10020000C2F1200320FA03F3194390407047202ADB
:1002100004DB203A21FA02F00021704721FA02F3B0
:10022000D040C2F12002914008431946704700BFF8
:10023000FEE770472DE9F041024600250026002028
:1002400000230024002791F803C00CF00F0591F85B
:1002500003C00CF0100CBCF1000F03D091F802C0E9
:100260004CEA050591F800C0BCF1000F31D01468CC
:1002700000202BE04FF0010C0CFA00F3B1F800C0A5
:100280000CEA03069E4220D183004FF00F0C0CFABB
:1002900003F7BC4305FA03FC4CEA040491F803C0DD
:1002A000BCF1280F06D14FF0010C0CFA00FCC2F88B
:1002B00014C00AE091F803C0BCF1480F05D14FF01B
:1002C000010C0CFA00FCC2F810C0401C0828D1D365
:1002D0001460B1F800C0BCF1FF0F34DD5468002099
:1002E0002EE000F1080C4FF0010808FA0CF3B1F809
:1002F00000C00CEA03069E4221D183004FF00F0C90
:100300000CFA03F7BC4305FA03FC4CEA040491F829
:1003100003C0BCF1280F05D100F1080C08FA0CF855
:10032000C2F8148091F803C0BCF1480F07D100F166
:10033000080C4FF0010808FA0CF8C2F81080401CB5
:100340000828CED35460BDE8F081416170470000B9
:1003500008B50121102000F059F80121042000F017
:1003600055F80121080300F051F804208DF803002E
:100370004020ADF8000003208DF8020069461748C0
:10038000FFF758FF18208DF803008020ADF800001B
:1003900003208DF8020069461048FFF74BFF182034
:1003A0008DF803002020ADF8000003208DF8020036
:1003B00069460A48FFF73EFF10208DF80300012030
:1003C000ADF8000003208DF8020069460448FFF7ED
:1003D00031FF0121024800F005F808BD0008014086
:1003E000001001400161704702A000F021FC00BF35
:1003F000FEE700000D0A686172646661756C740D39
:100400000A00000000BFFEE77047704729B1064AA6
:1004100092690243044B9A6104E0034A9269824361
:10042000014B9A61704700000010024030B5002176
:100430000022002400232D4D6D6805F00C0121B130
:10044000042905D0082923D105E0294D056022E0C3
:10045000274D05601FE0254D6D6805F47012234D92
:100460006D6805F48034022505EB92421CB9214DDC
:10047000554305600BE01D4D6D6805F400351DB159
:100480001C4D5543056002E0194D5543056002E0DF
:10049000174D056000BF00BF144D6D6805F0F001F9
:1004A0000909154D6B5C0568DD4045600F4D6D68B1
:1004B00005F4E061090A104D6B5C4568DD4085601C
:1004C0000A4D6D6805F46051C90A0B4D6B5C4568B7
:1004D000DD40C560054D6D6805F44041890B074D51
:1004E0006B5CC568B5FBF3F5056130BD00100240DB
:1004F00000127A0000093D000000002010000020DA
:1005000021B1028842F04002028004E002884FF6E6
:10051000BF731A400280704710B5044600F0F2F92C
:1005200001210B48FFF711FF202000F00DF9C4F363
:10053000074000F009F9C4F3072000F005F9E0B224
:1005400000F002F901210248FFF74CFF10BD000046
:10055000001001402DE9F05F07460E4614464FF0AB
:100560000008C146C2460025AB4606F0FF0ACAF1A4
:100570000000C5B22046E11704EB1161C1F3072862
:10058000E11704EB11610912A4EB012101F0FF094D
:10059000BAF1000F20D1B8F1000F05D12246314643
:1005A000384600F06FF864E009E04FF4807231469D
:1005B000384600F067F806F5807607F580775FEA41
:1005C0000800A8F1010101F0FF08EED14A463146CA
:1005D000384600F057F84CE0B8F1000F18D1A945A3
:1005E00010DDA9EB050000F0FF0B2A463146384626
:1005F00000F048F82E442F445A463146384600F061
:1006000041F836E022463146384600F03BF830E00B
:10061000601B84B22046E11704EB1161C1F3072887
:10062000E11704EB11610912A4EB012101F0FF09AC
:100630002A463146384600F025F82E442F4409E07A
:100640004FF480723146384600F01CF806F580768B
:1006500007F580775FEA0800A8F1010101F0FF08C3
:10066000EED1B9F1000F04D04A463146384600F0C9
:1006700009F8BDE8F09F10B5FFF76AFE00F0D8F862
:1006800010BD000070B505460C46164600F03AF95C
:1006900001211548FFF759FE022000F055F8C4F378
:1006A000074000F051F8C4F3072000F04DF8E0B225
:1006B00000F04AF8B6F5807F04DD4FF480760BA099
:1006C00000F0B6FA03E0287800F03EF86D1C300028
:1006D000A6F101018EB2F6D101210348FFF782FE97
:1006E00000F0F6F870BD0000001001405350495F63
:1006F000464C4153485F5061676557726974652085
:10070000746F6F206C6172676521000010B5012164
:100710000C48FFF71AFE9F2000F016F8AB2000F0FF
:1007200013F804462402AB2000F00EF80443240220
:10073000AB2000F009F8044301210248FFF752FE04
:10074000204610BD0010014070B504464FF480559E
:1007500008E02800A5F1010504D112A000F068FA14
:10076000002070BD0221134800F036F80028F0D0B8
:100770002146104800F03CF808E02800A5F10105EA
:1007800004D108A000F054FA0020EAE7012109484A
:1007900000F022F80028F0D0064800F026F8C0B299
:1007A000DFE7000053504920B5C8B4FDB3ACCAB16F
:1007B000210000000030014010B501210548FFF77D
:1007C000C4FDAB20FFF7C0FF01210248FFF70AFE7E
:1007D00010BD0000001001400246002013890B40AC
:1007E0000BB1012000E00020704701468889704766
:1007F0008181704710B50022028802F441520B88B3
:100800004C8823438C882343CC8823430C8923437F
:100810004C8923438C892343CC8923431A43028088
:10082000838B4FF2FF74234083830B8A038210BDB6
:1008300000B585B00020ADF80C000120ADF808002F
:100840000220ADF806000020ADF81000ADF804005D
:10085000ADF80000ADF80E004FF48270ADF8020064
:100860004FF40070ADF80A0069460448FFF7C2FF74
:1008700001210248FFF744FE05B000BD00300140F1
:1008800070B504460D46164601211048FFF75DFD80
:100890000320FFF759FFC4F30740FFF755FFC4F3E8
:1008A0000720FFF751FFE0B2FFF74EFF04E0AB2057
:1008B000FFF74AFF28706D1C3000A6F10106F6D143
:1008C00001210248FFF78EFD70BD000000100140BD
:1008D00010B5002401210A48FFF737FD0520FFF776
:1008E00033FF00BFAB20FFF72FFF044604F00100E9
:1008F0000028F7D101210248FFF774FD10BD000068
:100900000010014010B501210548FFF71EFD06202B
:10091000FFF71AFF01210248FFF764FD10BD000038
:1009200000100140704710B500F002F810BD000043
:100930000CB50020019000903348006840F48030EE
:100940003149086000BF3048006800F40030009072
:100950000198401C0190009818B90198B0F5A06F5B
:10096000F1D12948006800F4003010B10120009056
:1009700001E0002000900098012843D1234800683E
:1009800040F01000214908600846006820F003008C
:1009900008600846006840F0020008601A48406895
:1009A000194948600846406848600846406840F475
:1009B000806048600846406820F47C104860084623
:1009C000406840F4E81048600846006840F08070D5
:1009D000086000BF0C48006800F000700028F9D0E3
:1009E0000948406820F0030007494860084640680D
:1009F00040F00200486000BF0348406800F00C006F
:100A00000828F9D10CBD000000100240002002406F
:100A10007047000010B51348006840F0010011490C
:100A2000086008464068104908400E49486008467A
:100A300000680E4908400B4908600846006820F429
:100A4000802008600846406820F4FE0048604FF4AB
:100A50001F008860FFF767FF4FF0006004490860DF
:100A600010BD0000001002400000FFF8FFFFF6FE7E
:100A700008ED00E021B1828942F40052828104E055
:100A800082894DF6FF731A408281704700B585B0A8
:100A900001210420FFF7BAFC01218803FFF7B6FC0F
:100AA00018208DF813004FF40070ADF810000320EB
:100AB0008DF8120004A91448FFF7BCFB4FF48060C6
:100AC000ADF8100004208DF8130004A90E48FFF7BC
:100AD000B1FB0020ADF80C000C20ADF80A004FF47B
:100AE000E13000900020ADF80800ADF80600ADF848
:100AF00004006946054800F019F801210348FFF792
:100B0000B9FF05B000BD00000008014000380140F9
:100B100002460020B1F5007F00D100BF13880B40D2
:100B20000BB1012000E00020704700002DE9F047E4
:100B300086B005460E460024A24600BFA146002707
:100B4000B08900B100BF2F462C8A4CF6FF700440DC
:100B5000F08804432C82AC894EF6F3100440B08830
:100B600031890843718908430443AC81AC8A4FF64C
:100B7000FF400440B0890443AC8201A8FFF756FC53
:100B80001F48874202D1DDF810A001E0DDF80CA07B
:100B9000A88900F4004040B10AEBCA0000EB0A103B
:100BA00031684900B0FBF1F807E00AEBCA0000EB3E
:100BB0000A1031688900B0FBF1F86420B8FBF0F04E
:100BC00004012009642101FB1089A88900F4004078
:100BD00040B1322000EBC900B0FBF1F000F007009B
:100BE000044308E0322000EB09106421B0FBF1F06F
:100BF00000F00F0004432C8106B0BDE8F087000030
:100C000000380140C1F308028280704770B5044685
:100C10000D4629462046FFF7F5FF00BF80212046FC
:100C2000FFF776FF0028F9D070BD00BFFEE7000097
:100C30000FB4054B10B503A9044A029800F018F848
:100C400010BC5DF814FB0000051500082000002012
:100C500002E008C8121F08C1002AFAD17047704785
:100C6000002001E001C1121F002AFBD170470000E3
:100C70002DE9FF4F8DB09B460F460446002606E047
:100C800025280BD05A460F999047641C761C207873
:100C90000028F5D111B03046BDE8F08F0025A846F8
:100CA0000122984900E0054314F8013F203B02FA75
:100CB00003F00842F7D120782E2817D114F8010F3D
:100CC00045F004052A280ED06FF02F022078A0F1FD
:100CD000300109290AD808EB880102EB410100EB39
:100CE0000108641CF2E757F8048B641C20786C2818
:100CF0000DD004DC4C2812D06A2811D104E07428ED
:100D00000DD07A280CD10AE045F4001507E061788F
:100D100045F48015814202D1641C05F58015641CE0
:100D20002278692A45D008DC002AB3D0582A69D035
:100D3000632A10D0642A08D13BE0702A67D0732A56
:100D400013D0752A5CD0782A5CD010465A460F9989
:100D50009047761CD3E017F8040B8DF800000020B4
:100D60008DF80100E946012003E057F8049B4FF09D
:100D7000FF3069074FF0000501D40AE06D1C4545BE
:100D80000DDA8542FADB19F805100029F6D106E0E4
:100D90006D1C8542FCDB19F805100029F8D12E44A2
:100DA00004E019F8010B5A460F9990476D1EF8D2CE
:100DB000A5E00A200021CDE90801C5F30250022870
:100DC0000DD001CFC117031E71F100030DDA4FF0F2
:100DD000000CD0EB0C006CEB01012D2308E0FF1D93
:100DE00027F00707F7E80201EDE72B0504D52B23D1
:100DF0008DF8283001233BE0EB0739D02023F7E7BB
:100E00000A2000E010200021CDE9080107E01020B1
:100E1000002145F00405CDE908014FF00808C5F3AD
:100E2000025002280FD001CF00214FF0000A2B07FB
:100E30001FD5702A0DD0DDE908C38CF0100C5CEAD8
:100E4000030C0CD015E0FF1D27F00707F7E802019F
:100E5000EBE740228DF828204FF0010A0BE050EA22
:100E6000010306D030238DF828308DF82920022385
:100E70009A46582A04D024A20DF120090B9209E0C9
:100E800026A2F9E7DDE90823FFF76EF90B9B9B5CCF
:100E900009F8013D50EA0102F4D1ADEB0900203020
:100EA0000890680701D44FF001080899884502DDD1
:100EB000A8EB010000E000208046002506E00AA81B
:100EC0005A46405D0F9990476D1C761C5545F6DBE0
:100ED00004E030205A460F999047761CB8F1000183
:100EE000A8F10108F5DC05E019F8010B5A460F9945
:100EF0009047761C0899481E08900029F4DC641C71
:100F0000C5E6000009280100303132333435363768
:100F10003839616263646566000000003031323345
:100F200034353637383941424344454600000000E5
:100F300070B504460D4600202071401EE06229462F
:100F4000204600F04FFB08B1032070BD94F82E122C
:100F500094F82F0241EA00204AF65521884201D038
:100F60000220F2E794F86900010694F8680041EA6B
:100F7000004194F8670041EA002094F866100843A5
:100F800020F07F400D49884201D10020DDE794F830
:100F90008500010694F8840041EA004194F883003A
:100FA00041EA002094F88210084320F07F40034972
:100FB000884201D10020C8E70120C6E7464154001D
:100FC00010B50446012C02D0022C0AD101E0002009
:100FD00010BDFFF750FBFFF7EFFB022000F03EF8DB
:100FE000F6E70120F4E710B50346012B02D0022BEF
:100FF00018D101E0204610BD012904D0022906D0F5
:1010000003290BD107E04FF4C060106006E04FF4F5
:101010008050108002E00120108000BF00BF00243B
:101020002046E8E70420E6E72DE9F041054688463A
:1010300014461E46012D02D0022D0DD102E0384685
:10104000BDE8F08104F50074320320034146FFF748
:1010500017FC00273846F3E70420F1E770B5054692
:10106000012D02D0022D0CD101E0204670BDFFF70A
:101070004DFB0549884201D1002400E001242046AF
:10108000F4E70120F2E700001740EF002DE9F041FE
:1010900006460F4614461D46012E02D0022E14D1DC
:1010A00002E04046BDE8F08104F500742003FFF73C
:1010B00033FA4FF6FF7000EA053221033846FFF796
:1010C00049FA4FF000084046ECE70420EAE7000048
:1010D000F7B582B016460398019001A800F024FAF3
:1010E0000546002D02DA0B2005B0F0BD0E4850F881
:1010F00025400CB100202070029810B10020029908
:1011000008700949029841F82500029808B1012E9B
:1011100001D00020E8E7002203A902A800F006F8A9
:1011200007463846E0E70000140000202DE9F74F9D
:101130008AB000210A9801600B9800F0F5F9099037
:101140000998002803DA0B200DB0BDE8F08FE949BB
:10115000099851F820400CB90C20F5E70A98046072
:10116000207878B16078FFF779FF814609F00100B7
:1011700040B90C9820B109F0040008B10A20E3E757
:101180000020E1E700202070099860706078FFF788
:1011900017FF814609F0010008B10320D4E70C983D
:1011A00020B109F0040008B10A20CDE7607804F10D
:1011B0000A020221FFF717FF38B96089B0F5007FF6
:1011C00003DB6089B0F5805F01DD0120BCE700270B
:1011D00039462046FFF7ACFE0546012D01D09DBBE8
:1011E00032E000261AE004F5F77000EB061898F8D4
:1011F000040070B198F80B00010698F80A0041EA63
:10120000004198F8090041EA002098F808100843C6
:1012100000E0002002A941F82600761C042EE2D34B
:10122000002606B1761E00BF02A850F8267027B12E
:1012300039462046FFF77CFE00E0022005461DB13E
:10124000701C06460428EFD3032D01D101207BE753
:101250000DB10D2078E73B20015D94F83C0041EA98
:1012600000206189884201D00D206DE74620015D94
:1012700094F8470041EA002ABAF1000F0ED194F821
:101280005700010694F8560041EA004194F85500D1
:1012900041EA002094F8541040EA010AC4F818A06A
:1012A0004020005DE070E078012804D0E07802285A
:1012B00001D00D2048E7E0780AFB00FA3D20005DF0
:1012C000A070A07818B1A078411E084008B10D2088
:1012D0003AE74120015D94F8420041EA0020208174
:1012E0006089C11700EBD1614911228992FBF1F3AA
:1012F00001FB132109B10D2026E74320015D94F87D
:10130000440041EA00200890089870B994F853000E
:10131000010694F8520041EA004194F8510041EA74
:10132000002094F85010084308903E20015D94F886
:101330003F0041EA00200190019808B90D2003E721
:101340006089C11700EBD1614911228992FBF1F24A
:101350000199514411440791DDE90710884201D2F7
:101360000D20F1E6DDE90710401AA178B0FBF1FB92
:10137000BBF1000F01D10D20E6E6012540F6F67025
:10138000834500D302254FF6F670834500D303252D
:101390000BF102006061E761019838442062079810
:1013A0003844A062032D16D1208908B10D20CBE668
:1013B00094F85F00010694F85E0041EA004194F859
:1013C0005D0041EA002094F85C10084360626069A7
:1013D0008000069014E0208908B90D20B4E6206A48
:1013E00050446062022D02D16069400007E0207D18
:1013F00000F00100616901EB410100EB5100069032
:101400006089401E069908446189B0FBF1F0A1692A
:10141000884201D90D2097E64FF0FF302061E0604F
:1014200080206071032D5AD194F8601094F8610007
:1014300041EA0020012852D1791C204600F0D2F860
:10144000E8BB0020607194F82E1294F82F0241EA54
:1014500000204AF65521884241D13320005D010623
:101460003220005D41EA00413120005D41EA002068
:1014700094F8301008432049884230D194F817027C
:10148000010694F8160241EA004194F8150241EA77
:10149000002094F814120843184988421FD194F888
:1014A0001B02010694F81A0241EA004194F819025D
:1014B00041EA002094F818120843206100E00EE091
:1014C00094F81F02010694F81E0241EA004194F8C4
:1014D0001D0241EA002094F81C120843E0602570C8
:1014E00007480088401C80B205490880E080002041
:1014F0002AE60000140000205252614172724161DC
:101500001C00002070B504460D46E1B20548FFF707
:101510007DFB00BF80210348FFF7FAFA0028F9D0CD
:10152000204670BD0038014070B502464FF0FF30D4
:101530001568E5B1116800E0491C0D78212D02D332
:101540000D783A2DF8D10D783A2D0FD1146814F892
:10155000015BA5F130030A2B07D28C4205D1022B87
:1015600003D218464D1C2946156070BD002000BFEF
:10157000FBE70000FFF78AFAFFF77DF80DA0FFF701
:1015800057FB01220FA11048FFF7A2FD0446214698
:101590000EA0FFF74DFBFFF7B9F8054629460DA051
:1015A000FFF746FB0020FEF7B7FFFFF791F900BFFA
:1015B000FEE700004641544653B2E2CAD4B3CCD051
:1015C000F20A0000313A0000241000207273653DD9
:1015D000256400000D0A2049443D307825780D0A25
:1015E0000000000070B504460D460026E06AA842DF
:1015F00010D0204600F010F806465EB9607801234E
:101600002A4604F13001FFF70FFD10B14FF0FF350E
:101610000126E562304670BD2DE9F0410446002701
:101620002079F8B1E56A607801232A4604F1300197
:10163000FFF72CFD08B1012714E000202071206A7B
:10164000281AA16988420DD2E67809E0A06905440C
:10165000607801232A4604F13001FFF717FD761E5A
:10166000022EF3D23846BDE8F08100008C16000847
:101670000000002024000000500C0008B0160008F4
:101680002400002034240000600C0008000000004A
:101690000102030401020304060708090204060804
:1016A000000000000000000000000000000000003A
:0400000508000131BD
:00000001FF
