:0300000002000EED
:0C000E00787FE4F6D8FD758120020055D3
:10013F0006180102040810200A083F065B4F666D7F
:0C014F007D077F6F06120102030404000C
:10009A00758901758C0B758ADC75A882D28CE4F59A
:1000AA001E7418251EF8E6F590E51E64016005E544
:1000BA001EB4031B7412251EF8E62408F8E6F4445D
:1000CA0080F580E4F51F051FE51FB464F9801774F5
:1000DA0012251EF8E62408F8E6F4F580E4F51F0573
:0F00EA001FE51FB464F9051EE51EB406B480AF10
:03000B000200F9F7
:0400F900C0E0C0D0D3
:1000FD00C28C758C0B758ADCD28C0520E520C394DF
:10010D0010402A752000E5166405600EE517940968
:10011D0050040517801705168010E517C394095074
:0D012D0004051780080515751600751700EC
:05013A00D0D0D0E0323E
:10001A0002009AE493A3F8E493A34003F68001F262
:10002A0008DFF48029E493A3F85407240CC8C333E7
:10003A00C4540F4420C8834004F456800146F6DFB6
:10004A00E4800B010204081020408090013FE47E06
:10005A00019360BCA3FF543F30E509541FFEE493AB
:10006A00A360010ECF54C025E060A840B8E493A372
:10007A00FAE493A3F8E493A3C8C582C8CAC583CA9D
:10008A00F0A3C8C582C8CAC583CADFE9DEE780BE55
:01015B0000A3
:00000001FF
