:0300000002009962
:0C009900787FE4F6D8FD7581230200E0BA
:0901B2007FA07E5B12000380F7C0
:10019B00EFD3940040107DF47C01ED1D70011CED3C
:0601AB004C70F71F80EA12
:0101B100222B
:10017A000B083F065B4F666D7D077F6F770919FF96
:10018A00FEFDFBF7EFDFBF7F061300000000000053
:10000300AB07AA067C277D101201258F137C277D61
:1000130010AF03AE021201257E037FE8CFCDCFCE12
:10002300CCCE1201258F147C037DE8AF03AE021200
:1000330001257E007F64CFCDCFCECCCE1201258F9C
:10004300157C007D64AF03AE021201257E007F0A9A
:10005300CFCDCFCECCCE1201258F16AE02AF037C0F
:10006300007D0A1201258D17E4F52274122522F86A
:10007300E62408F8E6F580D2A6C2A674192522F86C
:10008300E6F580D2A7C2A77F0112019B0522E522D4
:06009300C3940640D622D2
:1000A5000201B2E493A3F8E493A34003F68001F2BE
:1000B50008DFF48029E493A3F85407240CC8C3335C
:1000C500C4540F4420C8834004F456800146F6DF2B
:1000D500E4800B010204081020408090017AE47E40
:1000E500019360BCA3FF543F30E509541FFEE49320
:1000F500A360010ECF54C025E060A840B8E493A3E7
:10010500FAE493A3F8E493A3C8C582C8CAC583CA11
:10011500F0A3C8C582C8CAC583CADFE9DEE780BEC9
:01019A000064
:10012500BC000BBE0029EF8DF084FFADF022E4CCBE
:10013500F875F008EF2FFFEE33FEEC33FCEE9DEC87
:10014500984005FCEE9DFE0FD5F0E9E4CEFD22EDCD
:10015500F8F5F0EE8420D21CFEADF075F008EF2F17
:10016500FFED33FD4007985006D5F0F222C398FD08
:050175000FD5F0EA22A5
:00000001FF
