:020000040800F2
:100000001814002045010008E9030008E103000876
:10001000E50300082F020008470A0008000000005E
:100020000000000000000000000000004107000880
:100030003302000800000000EB0300082D08000850
:100040005F0100085F0100085F0100085F01000810
:100050005F0100085F0100085F0100085F01000800
:100060005F0100085F0100085F0100085F010008F0
:100070005F0100085F0100085F0100085F010008E0
:100080005F0100085F0100085F0100085F010008D0
:100090005F0100085F0100085F0100085F010008C0
:1000A0005F0100085F0100085F0100085F010008B0
:1000B0005F0100085F0100085F0100085F010008A0
:1000C0005F0100085F0100085F0100085F01000890
:1000D0005F0100085F0100085F0100085F01000880
:1000E0005F0100085F0100085F0100085F01000870
:1000F0005F0100085F0100085F0100085F01000860
:100100005F0100085F0100085F0100085F0100084F
:100110005F0100085F0100085F0100085F0100083F
:100120005F0100085F0100085F0100085F0100082F
:10013000DFF80CD000F04AF800480047710D0008C5
:10014000181400200648804706480047FEE7FEE7EF
:10015000FEE7FEE7FEE7FEE7FEE7FEE7FEE7FEE777
:1001600031080008310100082DE9F05F0546002044
:1001700092469B4688460646814640241BE0284618
:1001800041464746224600F042F853465A46C01AB6
:10019000914110D311461846224600F029F82D1A35
:1001A00067EB01084F4622460120002100F020F8AD
:1001B00017EB00094E41201EA4F10104DFDC484684
:1001C00031462A464346BDE8F09F0000064C074DE5
:1001D00006E0E06840F0010394E807009847103417
:1001E000AC42F6D3FFF7A8FF000E0008200E00086F
:1001F000202A04DB203A00FA02F1002070479140E7
:10020000C2F1200320FA03F3194390407047202ADB
:1002100004DB203A21FA02F00021704721FA02F3B0
:10022000D040C2F12002914008431946704700BFF8
:10023000FEE770472DE9F041024600250026002028
:1002400000230024002791F803C00CF00F0591F85B
:1002500003C00CF0100CBCF1000F03D091F802C0E9
:100260004CEA050591F800C0BCF1000F31D01468CC
:1002700000202BE04FF0010C0CFA00F3B1F800C0A5
:100280000CEA03069E4220D183004FF00F0C0CFABB
:1002900003F7BC4305FA03FC4CEA040491F803C0DD
:1002A000BCF1280F06D14FF0010C0CFA00FCC2F88B
:1002B00014C00AE091F803C0BCF1480F05D14FF01B
:1002C000010C0CFA00FCC2F810C0401C0828D1D365
:1002D0001460B1F800C0BCF1FF0F34DD5468002099
:1002E0002EE000F1080C4FF0010808FA0CF3B1F809
:1002F00000C00CEA03069E4221D183004FF00F0C90
:100300000CFA03F7BC4305FA03FC4CEA040491F829
:1003100003C0BCF1280F05D100F1080C08FA0CF855
:10032000C2F8148091F803C0BCF1480F07D100F166
:10033000080C4FF0010808FA0CF8C2F81080401CB5
:100340000828CED35460BDE8F081416170470000B9
:1003500008B50121102000F049F80121042000F027
:1003600045F804208DF803004020ADF8000003207C
:100370008DF8020069461748FFF75CFF18208DF8DA
:1003800003008020ADF8000003208DF802006946CC
:100390001048FFF74FFF18208DF803002020ADF81C
:1003A000000003208DF8020069460A48FFF742FF6B
:1003B00010208DF803000120ADF8000003208DF817
:1003C000020069460448FFF735FF0121024800F0AA
:1003D00005F808BD000801400010014001617047A8
:1003E00000BFFEE700BFFEE77047704729B1064A2D
:1003F00092690243044B9A6104E0034A9269824382
:10040000014B9A61704700000010024030B5002196
:100410000022002400232D4D6D6805F00C0121B150
:10042000042905D0082923D105E0294D056022E0E3
:10043000274D05601FE0254D6D6805F47012234DB2
:100440006D6805F48034022505EB92421CB9214DFC
:10045000554305600BE01D4D6D6805F400351DB179
:100460001C4D5543056002E0194D5543056002E0FF
:10047000174D056000BF00BF144D6D6805F0F00119
:100480000909154D6B5C0568DD4045600F4D6D68D1
:1004900005F4E061090A104D6B5C4568DD4085603C
:1004A0000A4D6D6805F46051C90A0B4D6B5C4568D7
:1004B000DD40C560054D6D6805F44041890B074D71
:1004C0006B5CC568B5FBF3F5056130BD00100240FB
:1004D00000127A0000093D000000002010000020FA
:1004E00021B1028842F04002028004E002884FF607
:1004F000BF731A400280704710B5044600F010F92F
:1005000001210B48FFF721FF202000F037F8C4F34A
:10051000074000F033F8C4F3072000F02FF8E0B2F2
:1005200000F02CF801210248FFF758FF10BD000031
:100530000010014010B5FFF70BFF00F083F810BD6D
:1005400010B501210C48FFF700FF9F2000F016F8BE
:10055000AB2000F013F804462402AB2000F00EF8A4
:1005600004432402AB2000F009F8044301210248AF
:10057000FFF734FF204610BD0010014070B504465F
:100580004FF4805508E02800A5F1010504D112A020
:1005900000F05CFA002070BD0221134800F026F83C
:1005A0000028F0D02146104800F02CF808E0280080
:1005B000A5F1010504D108A000F048FA0020EAE7FF
:1005C0000121094800F012F80028F0D0064800F098
:1005D00016F8C0B2DFE7000053504920B5C8B4FD9B
:1005E000B3ACCAB121000000003001400246002037
:1005F00013890B400BB1012000E000207047014639
:10060000888970478181704710B50022028802F402
:1006100041520B884C8823438C882343CC88234346
:100620000C8923434C8923438C892343CC8923435E
:100630001A430280838B4FF2FF74234083830B8A1B
:10064000038210BD00B585B001210803FFF7CEFE7F
:100650000020ADF80C000120ADF808000220ADF834
:1006600006000020ADF81000ADF80400ADF8000061
:10067000ADF80E004FF48270ADF802004FF4007038
:10068000ADF80A0069460448FFF7BEFF01210248A1
:10069000FFF726FF05B000BD0030014070B50446ED
:1006A0000D46164601211048FFF74FFE0320FFF7C5
:1006B00065FFC4F30740FFF761FFC4F30720FFF7AE
:1006C0005DFFE0B2FFF75AFF04E0AB20FFF756FFF3
:1006D00028706D1C3000A6F10106F6D101210248F8
:1006E000FFF77CFE70BD00000010014010B5002433
:1006F00001210A48FFF729FE0520FFF73FFF00BF51
:10070000AB20FFF73BFF044604F001000028F7D1BF
:1007100001210248FFF762FE10BD000000100140F9
:1007200010B501210548FFF710FE0620FFF726FF50
:1007300001210248FFF752FE10BD000000100140E9
:10074000704710B500F002F810BD00000CB5002095
:10075000019000903348006840F4803031490860CF
:1007600000BF3048006800F4003000900198401C41
:100770000190009818B90198B0F5A06FF1D12948FF
:10078000006800F4003010B10120009001E000206A
:1007900000900098012843D12348006840F01000E1
:1007A000214908600846006820F0030008600846F8
:1007B000006840F0020008601A4840681949486023
:1007C0000846406848600846406840F480604860D9
:1007D0000846406820F47C1048600846406840F4B1
:1007E000E81048600846006840F08070086000BF6C
:1007F0000C48006800F000700028F9D009484068F3
:1008000020F00300074948600846406840F00200B5
:10081000486000BF0348406800F00C000828F9D188
:100820000CBD000000100240002002407047000094
:1008300010B51348006840F00100114908600846EF
:100840004068104908400E494860084600680E4953
:1008500008400B4908600846006820F480200860C2
:100860000846406820F4FE0048604FF41F0088608E
:10087000FFF767FF4FF000600449086010BD0000FB
:10088000001002400000FFF8FFFFF6FE08ED00E058
:1008900021B1828942F40052828104E082894DF6BE
:1008A000FF731A408281704700B585B00121042092
:1008B000FFF79CFD01218803FFF798FD18208DF8B4
:1008C00013004FF40070ADF8100003208DF81200F3
:1008D00004A91448FFF7AEFC4FF48060ADF8100097
:1008E00004208DF8130004A90E48FFF7A3FC002094
:1008F000ADF80C000C20ADF80A004FF4E130009088
:100900000020ADF80800ADF80600ADF80400694617
:10091000054800F019F801210348FFF7B9FF05B0B9
:1009200000BD0000000801400038014002460020E0
:10093000B1F5007F00D100BF13880B400BB101203F
:1009400000E00020704700002DE9F04786B0054622
:100950000E460024A24600BFA1460027B08900B180
:1009600000BF2F462C8A4CF6FF700440F0880443E9
:100970002C82AC894EF6F3100440B08831890843CC
:10098000718908430443AC81AC8A4FF6FF400440B0
:10099000B0890443AC8201A8FFF738FD1F488742A5
:1009A00002D1DDF810A001E0DDF80CA0A88900F468
:1009B000004040B10AEBCA0000EB0A103168490060
:1009C000B0FBF1F807E00AEBCA0000EB0A1031684F
:1009D0008900B0FBF1F86420B8FBF0F004012009B5
:1009E000642101FB1089A88900F4004040B1322045
:1009F00000EBC900B0FBF1F000F00700044308E091
:100A0000322000EB09106421B0FBF1F000F00F0080
:100A100004432C8106B0BDE8F08700000038014097
:100A2000C1F308028280704770B504460D4629461E
:100A30002046FFF7F5FF00BF80212046FFF776FF35
:100A40000028F9D070BD00BFFEE700000FB4054BD1
:100A500010B503A9044A029800F018F810BC5DF81C
:100A600014FB00004D0D00081400002002E008C82F
:100A7000121F08C1002AFAD170477047002001E018
:100A800001C1121F002AFBD1704700002DE9FF4F62
:100A90008DB09B460F460446002606E025280BD065
:100AA0005A460F999047641C761C20780028F5D18F
:100AB00011B03046BDE8F08F0025A84601229849C4
:100AC00000E0054314F8013F203B02FA03F008421E
:100AD000F7D120782E2817D114F8010F45F004051E
:100AE0002A280ED06FF02F022078A0F130010929BA
:100AF0000AD808EB880102EB410100EB0108641CF5
:100B0000F2E757F8048B641C20786C280DD004DCC5
:100B10004C2812D06A2811D104E074280DD07A280C
:100B20000CD10AE045F4001507E0617845F4801522
:100B3000814202D1641C05F58015641C2278692A63
:100B400045D008DC002AB3D0582A69D0632A10D0D7
:100B5000642A08D13BE0702A67D0732A13D0752A23
:100B60005CD0782A5CD010465A460F999047761C84
:100B7000D3E017F8040B8DF8000000208DF8010079
:100B8000E946012003E057F8049B4FF0FF30690766
:100B90004FF0000501D40AE06D1C45450DDA854291
:100BA000FADB19F805100029F6D106E06D1C854224
:100BB000FCDB19F805100029F8D12E4404E019F8DF
:100BC000010B5A460F9990476D1EF8D2A5E00A20F6
:100BD0000021CDE90801C5F3025002280DD001CF54
:100BE000C117031E71F100030DDA4FF0000CD0EBBA
:100BF0000C006CEB01012D2308E0FF1D27F0070717
:100C0000F7E80201EDE72B0504D52B238DF82830FA
:100C100001233BE0EB0739D02023F7E70A2000E06F
:100C200010200021CDE9080107E01020002145F047
:100C30000405CDE908014FF00808C5F30250022869
:100C40000FD001CF00214FF0000A2B071FD5702ACB
:100C50000DD0DDE908C38CF0100C5CEA030C0CD05D
:100C600015E0FF1D27F00707F7E80201EBE7402238
:100C70008DF828204FF0010A0BE050EA010306D05E
:100C800030238DF828308DF8292002239A46582ADF
:100C900004D024A20DF120090B9209E026A2F9E765
:100CA000DDE90823FFF760FA0B9B9B5C09F8013D27
:100CB00050EA0102F4D1ADEB09002030089068073A
:100CC00001D44FF001080899884502DDA8EB010026
:100CD00000E000208046002506E00AA85A46405D54
:100CE0000F9990476D1C761C5545F6DB04E03020CB
:100CF0005A460F999047761CB8F10001A8F10108F7
:100D0000F5DC05E019F8010B5A460F999047761C5F
:100D10000899481E08900029F4DC641CC5E6000010
:100D200009280100303132333435363738396162C1
:100D30006364656600000000303132333435363785
:100D400038394142434445460000000070B504462E
:100D50000D46E1B20548FFF767FE00BF802103485A
:100D6000FFF7E4FD0028F9D0204670BD00380140AF
:100D7000FFF79AFDFFF7DEFB15A0FFF767FEFFF711
:100D8000DFFB0546294616A0FFF760FE0020FFF7AF
:100D9000B3FBFFF7ABFC4FF4805215490020FFF77F
:100DA0007DFC00240FE01248015D12A0FFF74EFE0B
:100DB0000A2094FBF0F100FB114010B90FA0FFF7DF
:100DC00045FE601C84B2B4F5805FECDB00BFFEE73B
:100DD000535049B2E2CAD4B3CCD0F20A00000000AA
:100DE0000D0A2049443D307825780D0A00000000A6
:100DF0001800002030782578200000000D0A00003F
:100E0000200E000800000020180000006C0A0008F6
:100E1000380E000818000020001400007C0A0008AA
:100E20000000000001020304010203040607080990
:080E30000204060800000000A6
:0400000508000131BD
:00000001FF
