:03000000020006F5
:0C000600787FE4F6D8FD75810902004DFA
:06014500010901010800A0
:05014C007590FE80FE2D
:1000920020B6177F0112012E20B60CE5096480609C
:1000A20006E50925E0F50930B6FD20B5177F0112F6
:1000B200012E20B50CE50870047F0180027F008FBD
:1000C2000830B5FD20B4177F0112012E20B40CE5D3
:0F00D2000964016006E509C313F50930B4FD2286
:030003000200E117
:1000E100C0E0C0F0C083C082C0D075D000C000C0E5
:1000F10001C002C003C004C005C006C007120092BF
:100101007F3212012EE508B401087590FF7F32128B
:10011100012ED007D006D005D004D003D002D001E3
:0D012100D000D0D0D082D083D0F0D0E0321A
:10012E00EFD3940040107DE87C03ED1D70011CEDB3
:06013E004C70F71F80EA7F
:010144002298
:1000120002014CE493A3F8E493A34003F68001F2B7
:1000220008DFF48029E493A3F85407240CC8C333EF
:10003200C4540F4420C8834004F456800146F6DFBE
:10004200E4800B0102040810204080900145E47E08
:10005200019360BCA3FF543F30E509541FFEE493B3
:10006200A360010ECF54C025E060A840B8E493A37A
:10007200FAE493A3F8E493A3C8C582C8CAC583CAA5
:10008200F0A3C8C582C8CAC583CADFE9DEE780BE5D
:01014B0000B3
:00000001FF
