:020000040800F2
:100000002004002045010008D5040008530300081F
:10001000D10400082F020008810A00080000000037
:100020000000000000000000000000007906000849
:100030003302000800000000810500086507000881
:100040005F0100085F0100085F0100085F01000810
:100050005F0100085F0100085F0100085F01000800
:100060005F0100085F0100085F0100085F010008F0
:100070005F0100085F0100085F0100085F010008E0
:100080005F0100085F0100085F0100085F010008D0
:100090005F0100085F0100085F0100085F010008C0
:1000A0005F0100085F0100085F0100085F010008B0
:1000B0005F0100085F0100085F0100085F010008A0
:1000C0005F0100085F0100085F0100085F01000890
:1000D0005F010008C90700085F0100085F01000810
:1000E0005F0100085F0100085F0100085F01000870
:1000F0005F0100085F0100085F0100085F01000860
:100100005F0100085F0100085F0100085F0100084F
:100110005F0100085F0100085F0100085F0100083F
:100120005F0100085F0100085F0100085F0100082F
:10013000DFF80CD000F04AF800480047D10F000863
:10014000200400200648804706480047FEE7FEE7F7
:10015000FEE7FEE7FEE7FEE7FEE7FEE7FEE7FEE777
:1001600069070008310100082DE9F05F054600200D
:1001700092469B4688460646814640241BE0284618
:1001800041464746224600F042F853465A46C01AB6
:10019000914110D311461846224600F029F82D1A35
:1001A00067EB01084F4622460120002100F020F8AD
:1001B00017EB00094E41201EA4F10104DFDC484684
:1001C00031462A464346BDE8F09F0000064C074DE5
:1001D00006E0E06840F0010394E807009847103417
:1001E000AC42F6D3FFF7A8FF84100008A410000863
:1001F000202A04DB203A00FA02F1002070479140E7
:10020000C2F1200320FA03F3194390407047202ADB
:1002100004DB203A21FA02F00021704721FA02F3B0
:10022000D040C2F12002914008431946704700BFF8
:10023000FEE770472DE9F041024600250026002028
:1002400000230024002791F803C00CF00F0591F85B
:1002500003C00CF0100CBCF1000F03D091F802C0E9
:100260004CEA050591F800C0BCF1000F31D01468CC
:1002700000202BE04FF0010C0CFA00F3B1F800C0A5
:100280000CEA03069E4220D183004FF00F0C0CFABB
:1002900003F7BC4305FA03FC4CEA040491F803C0DD
:1002A000BCF1280F06D14FF0010C0CFA00FCC2F88B
:1002B00014C00AE091F803C0BCF1480F05D14FF01B
:1002C000010C0CFA00FCC2F810C0401C0828D1D365
:1002D0001460B1F800C0BCF1FF0F34DD5468002099
:1002E0002EE000F1080C4FF0010808FA0CF3B1F809
:1002F00000C00CEA03069E4221D183004FF00F0C90
:100300000CFA03F7BC4305FA03FC4CEA040491F829
:1003100003C0BCF1280F05D100F1080C08FA0CF855
:10032000C2F8148091F803C0BCF1480F07D100F166
:10033000080C4FF0010808FA0CF8C2F81080401CB5
:100340000828CED35460BDE8F08141617047016157
:10035000704700BFFEE7000008B58020ADF8000040
:1003600004208DF8030069460148FFF763FF08BDCC
:10037000000C014008B58020ADF8000010208DF879
:10038000030003208DF8020069460248FFF752FF80
:1003900008BD0000000C014070B50446FFF7EAFFFD
:1003A00040211648FFF7D1FF052000F0BCFD0025D5
:1003B00020E004F0800020B180211048FFF7C7FF43
:1003C00003E080210D48FFF7C0FF052000F0ABFDE2
:1003D00040210A48FFF7BBFF0A2000F0A4FD40219E
:1003E0000648FFF7B2FF052000F09DFD6006040EF1
:1003F000681CC5B2082DDCDB70BD0000000C01409C
:1004000010B5FFF7B7FF80210A48FFF7A0FF402192
:100410000848FFF79CFF0A2000F085FD8021054871
:10042000FFF793FF0A2000F07EFD40210148FFF70F
:100430008CFF10BD000C014010B580210E48FFF765
:1004400086FF012000F06FFD40210B48FFF77FFF82
:10045000012000F068FDFFF77FFF074808300068C3
:10046000C0F3C01440210448FFF76FFF012000F0E3
:100470005AFD204610BD0000000C014008B50121C6
:10048000082000F07FF82320ADF8000010208DF840
:10049000030003208DF8020069460C48FFF7CAFEEE
:1004A00069460A48FFF7C6FE69460848FFF7C2FEDC
:1004B00001210648FFF74BFF20210448FFF747FFC3
:1004C00002210248FFF743FF08BD0000000C014075
:1004D00000BFFEE7704708B54FF4A06000F046F893
:1004E00025208DF8000001208DF801008DF8020014
:1004F0008DF80300684600F001F808BD70B50021D2
:1005000000230F22C47804B3154C246804F4E0647B
:10051000C4F5E064210AC1F10403CA40447804FA36
:1005200003F184781440214309010E4C0678A1554B
:10053000047804F01F050124AC4005786D11AD006E
:1005400005F1E025C5F8004109E0047804F01F0535
:100550000124AC40044D0678761145F8264070BD64
:100560000CED00E000E400E080E100E0024901431E
:10057000024A1160704700000000FA050CED00E02F
:100580007047000029B1064A92690243044B9A6100
:1005900004E0034A92698243014B9A61704700006C
:1005A0000010024030B500210022002400232D4D10
:1005B0006D6805F00C0121B1042905D0082923D16B
:1005C00005E0294D056022E0274D05601FE0254D1F
:1005D0006D6805F47012234D6D6805F480340225B2
:1005E00005EB92421CB9214D554305600BE01D4DB2
:1005F0006D6805F400351DB11C4D5543056002E0E2
:10060000194D5543056002E0174D056000BF00BF5E
:10061000144D6D6805F0F0010909154D6B5C056816
:10062000DD4045600F4D6D6805F4E061090A104D2D
:100630006B5C4568DD4085600A4D6D6805F460516E
:10064000C90A0B4D6B5C4568DD40C560054D6D68A2
:1006500005F44041890B074D6B5CC568B5FBF3F5AC
:10066000056130BD0010024000127A0000093D0013
:100670000000002010000020704710B500F002F8C4
:1006800010BD00000CB500200190009033480068B8
:1006900040F480303149086000BF3048006800F401
:1006A000003000900198401C0190009818B9019802
:1006B000B0F5A06FF1D12948006800F4003010B106
:1006C0000120009001E0002000900098012843D113
:1006D0002348006840F0100021490860084600687F
:1006E00020F0030008600846006840F0020008603F
:1006F0001A484068194948600846406848600846FA
:10070000406840F4806048600846406820F47C10EF
:1007100048600846406840F4E810486008460068B1
:1007200040F08070086000BF0C48006800F0007066
:100730000028F9D00948406820F0030007494860C4
:100740000846406840F00200486000BF0348406827
:1007500000F00C000828F9D10CBD00000010024088
:10076000002002407047000010B51348006840F0B8
:1007700001001149086008464068104908400E49C8
:100780004860084600680E4908400B490860084662
:10079000006820F4802008600846406820F4FE00CD
:1007A00048604FF41F008860FFF767FF4FF000605C
:1007B0000449086010BD0000001002400000FFF86E
:1007C000FFFFF6FE08ED00E010B52021244800F000
:1007D000A1F8002842D0224800F03AF9C4B22146DC
:1007E0001F4800F03EF9422C10D0472C1BD0522C51
:1007F00026D120211B48FFF7A8FD02211948FFF749
:10080000A6FD01211748FFF7A2FD26E0202115488B
:10081000FFF79DFD02211348FFF797FD01211148C5
:10082000FFF795FD19E020210E48FFF790FD02210A
:100830000C48FFF78CFD01210A48FFF786FD0CE00C
:1008400020210848FFF783FD02210648FFF77FFDBE
:1008500001210448FFF77BFD00BF00BF10BD000071
:1008600000380140000C014021B1828942F400525D
:10087000828104E082894DF6FF731A4082817047BD
:1008800000B585B001210420FFF77CFE012188031B
:10089000FFF778FE18208DF813004FF40070ADF8C4
:1008A000100003208DF8120004A91848FFF7C2FCBD
:1008B0004FF48060ADF8100004208DF8130004A9F7
:1008C0001248FFF7B7FC0020ADF80C000C20ADF883
:1008D0000A004FF4E13000900020ADF80800ADF8B8
:1008E0000600ADF804006946094800F045F8FFF736
:1008F000F2FD012240F22551054800F018F80121CF
:100900000348FFF7B1FF05B000BD0000000801403B
:100910000038014002460020B1F5007F00D100BF41
:1009200013880B400BB1012000E000207047F0B5A8
:100930000346002400260025002040F66A17B9422D
:1009400000D100BF1846C1F3421401F01F06012771
:1009500007FA06F5012C01D10C3004E0022C01D17C
:10096000103000E014301AB107682F43076002E02E
:100970000768AF430760F0BD2DE9F04786B0054634
:100980000E460024A24600BFA1460027B08900B150
:1009900000BF2F462C8A4CF6FF700440F0880443B9
:1009A0002C82AC894EF6F3100440B088318908439C
:1009B000718908430443AC81AC8A4FF6FF40044080
:1009C000B0890443AC8201A8FFF7ECFD1F488742C1
:1009D00002D1DDF810A001E0DDF80CA0A88900F438
:1009E000004040B10AEBCA0000EB0A103168490030
:1009F000B0FBF1F807E00AEBCA0000EB0A1031681F
:100A00008900B0FBF1F86420B8FBF0F00401200984
:100A1000642101FB1089A88900F4004040B1322014
:100A200000EBC900B0FBF1F000F00700044308E060
:100A3000322000EB09106421B0FBF1F000F00F0050
:100A400004432C8106B0BDE8F08700000038014067
:100A500001468888C0F308007047C1F3080282800D
:100A6000704770B504460D4629462046FFF7F5FF4E
:100A700000BF80212046FFF74DFF0028F9D070BD50
:100A800000BFFEE70FB4054B10B503A9044A029856
:100A900000F018F810BC5DF814FB0000AD0F000862
:100AA0001800002002E008C8121F08C1002AFAD16D
:100AB00070477047002001E001C1121F002AFBD1DE
:100AC000704700002DE9FF4F8DB00F460546002608
:100AD00006E025280BD0DDE90F1290476D1C761C2F
:100AE00028780028F5D111B03046BDE8F08F0024F9
:100AF000A246A1460122EC4900E0044315F8013F5B
:100B0000203B02FA03F00842F7D128782A2810D0B7
:100B10006FF02F022878A0F13001092914D80AEBD0
:100B20008A0102EB410144F0020400EB010A6D1C52
:100B3000F0E701CF5FEA000A03D544F40054CAF19C
:100B4000000A44F002046D1C28782E2817D115F8ED
:100B5000010F44F004042A280ED06FF02F022878E9
:100B6000A0F1300109290AD809EB890102EB410102
:100B700000EB01096D1CF2E757F8049B6D1C287807
:100B80006C280FD006DC4C2817D068280DD06A28B6
:100B900014D104E0742810D07A280FD10DE044F469
:100BA00000140AE044F4801401E044F4401469782D
:100BB000814202D104F580146D1C6D1C2A786E2AC6
:100BC0001FD00CDC632A31D004DC002A8BD0582AD9
:100BD00011D1A3E0642A68D0692A0CD165E0732A98
:100BE0002ED004DC6F2A73D0702A04D19BE0752AC2
:100BF0006FD0782A6ED01046DDE90F129047761C30
:100C000050E1C4F30250022806D0032809D004287A
:100C100001CF09D0066045E101CFF117C0E90061BD
:100C200040E101CF06803DE106703BE117F8040B7F
:100C30008DF8000000208DF80100EB46012003E054
:100C400057F804BB4FF0FF3061074FF0000102D4AA
:100C50000DE008F10101884649450FDA8045F8DBCF
:100C60001BF808100029F4D108E008F101018846BA
:100C70008142FADB1BF808100029F6D1DDE90F23C9
:100C8000AAEB08008146214600F036F9304400EB1B
:100C9000080604E0DDE90F121BF8010B9047B8F1DC
:100CA0000108F7D221464846F7E00A21C4F302536F
:100CB0004FF0000B0891022B04D001CFC117032B7A
:100CC00009D00AE0FF1D27F00707F7E8020108E056
:100CD00032E01FE020E000B2C117042B01D140B286
:100CE000C117031E71F1000307DA4FF0000CD0EBBF
:100CF0000C006CEB01012D2302E0230504D52B230E
:100D00008DF82430012303E0E30701D02023F7E727
:100D1000984658E00A2110E010210EE010204FF014
:100D2000000B08900CE010214FF0000B44F004047D
:100D30004FF00809089103E008214FF0000B0891DB
:100D4000C4F30253022B04D001CF0021032B06D0A1
:100D500006E0FF1D27F00707F7E8020103E080B275
:100D6000042B00D1C0B24FF0000823072BD5702A06
:100D700007D0DDF820C08CF0100C5CEA0B0C05D01D
:100D80000EE040238DF82430012308E050EA0103EF
:100D900006D030238DF824308DF825200223984684
:100DA000DDF820C08CF0080C5CEA0B0C0BD150EA8B
:100DB000010301D1630706D530238DF824304FF0AD
:100DC0000108A9F10109582A04D038A20B9208AAF7
:100DD0000A920BE03AA2F9E75B46089AFFF7C4F9DA
:100DE0000B9B9B5C0A9A521E0A92137050EA0102F6
:100DF000F2D10A98ADEB000000F1200B600702D59C
:100E000024F4803401E04FF00109D94502DDA9EB5B
:100E10000B0000E0002000EB0B0141440890AAEB1E
:100E2000010AE00306D4DDE90F232146504600F015
:100E300063F806444FF0000908E009A911F8090019
:100E4000DDE90F12904709F10109761CC145F4DB79
:100E5000E0030CD5DDE90F232146504600F04CF8A5
:100E6000064404E0DDE90F1230209047761C089913
:100E7000481E08900029F5DC08E00A980A990078D5
:100E8000491C0A91DDE90F129047761CBBF1000165
:100E9000ABF1010BF1DC21465046DDE90F2300F0F8
:100EA00019F806446D1C1BE6092801003031323365
:100EB0003435363738396162636465660000000096
:100EC0003031323334353637383941424344454680
:100ED000000000002DE9F041044600251E4617469B
:100EE000880404D405E039462020B0476D1C641EF8
:100EF000F9D52846BDE8F0812DE9F04104460025EA
:100F00001E469046C80301D5302700E020278804FC
:100F100004D505E041463846B0476D1C641EF9D53E
:100F20002846BDE8F08170B5044640F2DC5094FBE1
:100F3000F0F0C6B240F2DC5094FBF0F100FB11403F
:100F400085B205E040F2DC5000F00AF8701EC6B22F
:100F5000002EF7D115B1284600F002F870BD000050
:100F60000146114A12884A434FF0E0235A61002299
:100F70009A611A46126942F001021A6100BF4FF0ED
:100F8000E022106900F001021AB100F48032002A58
:100F9000F5D04FF0E022126922F001024FF0E02379
:100FA0001A6100229A6170471600002070B504464D
:100FB0000D46E1B20548FFF754FD00BF802103480C
:100FC000FFF7A8FC0028F9D0204670BD003801408A
:100FD000FFF754FA20211148FFF7B9F902210F4811
:100FE000FFF7B3F901210D48FFF7B1F9FFF748FC0E
:100FF00000F02CF80AA0FFF745FDFFF701FA0120E9
:10100000FFF791FFA020FFF7C7F9FFF715FA044695
:1010100021460BA0FFF736FD00BFFEE7000C0140A4
:10102000656570726F6D20C8EDBCFEC4A3C4E26933
:101030003263B2E2CAD4C0FDB3CC200D0A00000076
:10104000726563313D25640D0A0000004FF0E02019
:10105000006920F004004FF0E021086109200749F1
:1010600008700846007800EB4001C1EBC0104FF655
:10107000FF7101EAC0000249088070471400002097
:1010800016000020A4100008000000201C00000032
:10109000A40A0008C01000081C000020040400007E
:1010A000B40A000800000000010203040102030466
:1010B00006070809020406080000000000000000FE
:0400000508000131BD
:00000001FF
