:030000000205CD29
:0C05CD00787FE4F6D8FD75813102061439
:1006E500012700011E000C1200020003000500098D
:1006F50000050000081F000000000000000007289A
:10070500020408102040800A083F065B4F666D7D95
:03071500077F6FEC
:10036500758901758C0B758ADCD28C75A883E51EA1
:1003750064027003020431E4F530E4F52F74282596
:100385002FF8E6F4F590E52F64016005E52FB40339
:1003950011E52F25E02412F808E62408F8E6448044
:1003A500800DE52F25E02412F808E62408F8E6F587
:1003B500807F01120719052FE52FC3940640BE055E
:1003C50030E530C3940A40B2E51E640170A0F530F3
:1003D500E530C3940A5097E4F52FE527B52F057549
:1003E50090FF80367428252FF8E6F4F590E52F6404
:1003F500016005E52FB40313E52F25E02412F80865
:10040500E62408F8E64480F580800FE52F25E024F2
:1004150012F808E62408F8E6F5807F0A12071905A0
:100425002FE52FC3940640B2053080A4E51E640273
:100435006003020373F530E4F52F7428252FF8E6E1
:10044500F4F590E52F64016005E52FB40311E52F60
:1004550025E0241FF808E62408F8E64480800DE529
:100465002F25E0241FF808E62408F8E6F5807F012B
:10047500120719052FE52FC3940440BE0530E5305A
:10048500C3940A40B2E4F530E530C3940A40030250
:100495000373E4F52FE527B52F057590FF803674B6
:1004A50028252FF8E6F4F590E52F64016005E52F82
:1004B500B40313E52F25E0241FF808E62408F8E621
:1004C5004480F580800FE52F25E0241FF808E624F9
:1004D50008F8E6F5807F0A120719052FE52FC39462
:0704E5000440B2053080A1C4
:030003000206AA48
:1006AA00C0E0C0F0C083C082C0D075D000C000C016
:1006BA0001C002C003C004C005C006C00712000E74
:1006CA00D007D006D005D004D003D002D001D00084
:0B06DA00D0D0D082D083D0F0D0E0322E
:03000B0002065991
:10065900C0E0C0F0C083C082C0D075D000C000C067
:0D06690001C002C003C004C005C006C007E8
:10067600C28C758C0B758ADCD28C0531E531C3943E
:090686001040067531001204EC6D
:10068F00D007D006D005D004D003D002D001D000BF
:0B069F00D0D0D082D083D0F0D0E03269
:1004EC00051DE51D7002051CD39409E51C64809460
:1004FC0080500302059FE4F51CF51D051BE51B70E0
:10050C0002051AD39405E51A648094805003020501
:10051C009FE4F51AF51B0519E51970020518D3941B
:10052C0009E51864809480406AE4F518F5190517FC
:10053C00E51770020516D39405E516648094804087
:10054C0052E4F516F5170515E51570020514E513BB
:10055C009402E51264809480501BE5159409E5140F
:10056C0064809480400FE4F514F5150513E51370C1
:10057C00020512801EE513640245127016D3E515B0
:10058C009403E514648094804009E4F514F515F5A2
:10059C0012F513E513B52026E512B51F21E515B5A7
:1005AC00221CE514B52117E517B52412E516B52361
:1005BC000DE519B52608E518B52503D2B722C2B743
:0105CC00220C
:10071900EFD3940040107D647C00ED1D70011CED49
:060729004C70F71F80EA8E
:01072F0022A7
:10000E0030A4030202CD7F05120719E51E640160BC
:10001E00030201A2E5271470030200AB1470030261
:10002E00010D14700302013514700302015A14708D
:10003E000302017F240560030201A2E52725E024C7
:10004E0012F8E6FE08E6FF64014E7032E52725E061
:10005E002414F8E6FC08E6D39403EC648094804004
:10006E001DE52725E02414F87600087603E52725FC
:10007E00E02412F80806E6187020060201A2C3EF6B
:10008E009402EE6480948040030201A2E52725E0ED
:10009E002412F80806E6187001060201A2E52725CB
:1000AE00E02410F8E6FE08E664024E6029E52725F6
:1000BE00E02412F8E6FE08E6C39409EE648094800C
:1000CE0040030201A2E52725E02412F80806E618EF
:1000DE007001060201A2E52725E02412F8E6FE08CB
:1000EE00E6C39403EE6480948040030201A2E527E8
:1000FE0025E02412F80806E6187001060201A2E5B2
:10010E002725E02412F8E6FE08E6C39405EE648087
:10011E00948040030201A2E52725E02412F8080688
:10012E00E618700106806DE52725E02412F8E6FE3C
:10013E0008E6C39409EE648094805058E52725E0C4
:10014E002412F80806E618704B068048E52725E0CD
:10015E002412F8E6FE08E6C39405EE6480948050FF
:10016E0033E52725E02412F80806E61870260680E7
:10017E0023E52725E02412F8E6FE08E6C39409EEEF
:10018E0064809480500EE52725E02412F80806E6D8
:10019E0018700106E51E640260030202CAE5271408
:1001AE0060751470030202821470030202A7240306
:1001BE0060030202CAE52725E0241FF8E6FE08E6E2
:1001CE00FF64014E7032E52725E02421F8E6FC0895
:1001DE00E6D39403EC64809480401DE52725E0244B
:1001EE0021F87600087603E52725E0241FF8080697
:1001FE00E6187020060202CAC3EF9402EE648094E1
:10020E008040030202CAE52725E0241FF80806E60F
:10021E00187001060202CAE52725E0241DF8E6FE45
:10022E0008E664024E6028E52725E0241FF8E6FE66
:10023E0008E6C39409EE6480948040030202CAE586
:10024E002725E0241FF80806E618700106806DE5E4
:10025E002725E0241FF8E6FE08E6C39403EE64802B
:10026E0094805058E52725E0241FF80806E61870FC
:10027E004B068048E52725E0241FF8E6FE08E6C376
:10028E009405EE648094805033E52725E0241FF812
:10029E000806E6187026068023E52725E0241FF8B9
:1002AE00E6FE08E6C39409EE64809480500EE527BE
:1002BE0025E0241FF80806E61870010630A4FD207C
:1002CE00A31D7F0512071920A312E51EC394025029
:1002DE0006051EC28C8005E4F51ED28C30A3FD20CF
:1002EE00A24A7F05120719E51EB4011CE52725E079
:1002FE002412F8E6FE08E64E600EE52725E02412ED
:10030E00F808E61618700116E51EB4021CE527253E
:10031E00E0241FF8E6FE08E64E600EE52725E024F1
:10032E001FF808E6161870011630A2FD20A0137FE4
:10033E000512071920A008E527640560020527307D
:10034E00A0FD20A1117F0512071920A106E5276047
:07035E0002152730A1FD226A
:1005D900020365E493A3F8E493A34003F68001F2D0
:1005E90008DFF48029E493A3F85407240CC8C33323
:1005F900C4540F4420C8834004F456800146F6DFF2
:10060900E4800B01020408102040809006E5E47E96
:10061900019360BCA3FF543F30E509541FFEE493E6
:10062900A360010ECF54C025E060A840B8E493A3AD
:10063900FAE493A3F8E493A3C8C582C8CAC583CAD8
:10064900F0A3C8C582C8CAC583CADFE9DEE780BE90
:0107180000E0
:00000001FF
