:03000000020800F3
:0C080000787FE4F6D8FD758113020847EC
:100907000113000B083F065B4F666D7D077F6F770E
:1008F600D288D2AFD2A874082513F8E6F4F5808022
:01090600F5FB
:0300030002088C64
:10088C00C0E0C0F0C083C082C0D075D000C000C032
:10089C0001C002C003C004C005C006C0071208C7CF
:1008AC00D007D006D005D004D003D002D001D000A0
:0B08BC00D0D0D082D083D0F0D0E0324A
:1008DF00EFD3940040107DE87C03ED1D70011CEDFB
:0608EF004C70F71F80EAC7
:0108F50022E0
:1008C70020B5147F011208DF20B509E513C3940989
:0808D7005002051330B5FD22AB
:10080C000208F6E493A3F8E493A34003F68001F204
:10081C0008DFF48029E493A3F85407240CC8C333ED
:10082C00C4540F4420C8834004F456800146F6DFBC
:10083C00E4800B0102040810204080900907E47E3C
:10084C00019360BCA3FF543F30E509541FFEE493B1
:10085C00A360010ECF54C025E060A840B8E493A378
:10086C00FAE493A3F8E493A3C8C582C8CAC583CAA3
:10087C00F0A3C8C582C8CAC583CADFE9DEE780BE5B
:0109170000DF
:00000001FF
