:03000000020003F8
:0C000300787FE4F6D8FD75810A02004AFF
:0300C20001080131
:1000AD00E4F5807F64FE12008F7580FF7F647E0013
:0500BD0012008F80EB32
:10008F00D3EF9400EE940040147DE87C03ED1D70D7
:0D009F00011CED4C70F7EF1F70E61E80E3B2
:0100AC002231
:10000F000200ADE493A3F8E493A34003F68001F25A
:10001F0008DFF48029E493A3F85407240CC8C333F2
:10002F00C4540F4420C8834004F456800146F6DFC1
:10003F00E4800B01020408102040809000C2E47E8F
:10004F00019360BCA3FF543F30E509541FFEE493B6
:10005F00A360010ECF54C025E060A840B8E493A37D
:10006F00FAE493A3F8E493A3C8C582C8CAC583CAA8
:10007F00F0A3C8C582C8CAC583CADFE9DEE780BE60
:0100C500003A
:00000001FF
