:020000040800F2
:100000001804002045010008DB040008D3040008A0
:10001000D70400082F0200088B0B00080000000026
:10002000000000000000000000000000850800083B
:100030003302000800000000DD0400087109000818
:100040005F0100085F0100085F0100085F01000810
:100050005F0100085F0100085F0100085F01000800
:100060005F0100085F0100085F0100085F010008F0
:100070005F0100085F0100085F0100085F010008E0
:100080005F0100085F0100085F0100085F010008D0
:100090005F0100085F0100085F0100085F010008C0
:1000A0005F0100085F0100085F0100085F010008B0
:1000B0005F0100085F0100085F0100085F010008A0
:1000C0005F0100085F0100085F0100085F01000890
:1000D0005F0100085F0100085F0100085F01000880
:1000E0005F0100085F0100085F0100085F01000870
:1000F0005F0100085F0100085F0100085F01000860
:100100005F0100085F0100085F0100085F0100084F
:100110005F0100085F0100085F0100085F0100083F
:100120005F0100085F0100085F0100085F0100082F
:10013000DFF80CD000F04AF800480047B50E000880
:10014000180400200648804706480047FEE7FEE7FF
:10015000FEE7FEE7FEE7FEE7FEE7FEE7FEE7FEE777
:1001600075090008310100082DE9F05F05460020FF
:1001700092469B4688460646814640241BE0284618
:1001800041464746224600F042F853465A46C01AB6
:10019000914110D311461846224600F029F82D1A35
:1001A00067EB01084F4622460120002100F020F8AD
:1001B00017EB00094E41201EA4F10104DFDC484684
:1001C00031462A464346BDE8F09F0000064C074DE5
:1001D00006E0E06840F0010394E807009847103417
:1001E000AC42F6D3FFF7A8FF300F0008500F00080D
:1001F000202A04DB203A00FA02F1002070479140E7
:10020000C2F1200320FA03F3194390407047202ADB
:1002100004DB203A21FA02F00021704721FA02F3B0
:10022000D040C2F12002914008431946704700BFF8
:10023000FEE7704751B18200A2F1C042126842F05D
:1002400001038200A2F1C042136009E08200A2F122
:10025000C0421268034B1A408300A3F1C0431A60E6
:1002600070470000FEFF0F00D0E901121143C26881
:100270001143026911434269114382691143C26902
:100280001143026A1143426A1143826A1143C26AEE
:100290001143026B114302689200A2F1C042116047
:1002A000816808290BD101688900A1F1C041096862
:1002B00041F0400201688900A1F1C0410A60416B30
:1002C0000968426B526841EA0211426B926841EA46
:1002D0000221426B928941EA0241426B128A41EA51
:1002E0000251426B127D41EA0261426B92691143F5
:1002F0000268521C9200A2F1C0421160C16AB1F5BD
:10030000804F1BD1816B0968826B526841EA0211F0
:10031000826B926841EA0221826B128A41EA0251A1
:10032000826B127D41EA0261826B9269114302681D
:100330009200A2F1C042C2F8041107E06FF07042CF
:1003400001688900A1F1C041C1F80421704700B5DE
:100350009DB00121080200F0C3F800200D90089024
:1003600007900A900B900C900220099000200690B4
:1003700001900090039004900590022002900420C8
:100380000E90000319901020119000021790002089
:10039000139012900F901090189016901490159042
:1003A0001A90CDF870D007A81B900EA8FFF75CFF3D
:1003B00001210420FFF73EFF1DB000BD2DE9F041F3
:1003C000024600250026002000230024002791F883
:1003D00003C00CF00F0591F803C00CF0100CBCF139
:1003E000000F03D091F802C04CEA050591F800C057
:1003F000BCF1000F31D0146800202BE04FF0010C4D
:100400000CFA00F3B1F800C00CEA03069E4220D1BA
:1004100083004FF00F0C0CFA03F7BC4305FA03FC02
:100420004CEA040491F803C0BCF1280F06D14FF048
:10043000010C0CFA00FCC2F814C00AE091F803C0E9
:10044000BCF1480F05D14FF0010C0CFA00FCC2F8CA
:1004500010C0401C0828D1D31460B1F800C0BCF112
:10046000FF0F34DD546800202EE000F1080C4FF03F
:10047000010808FA0CF3B1F800C00CEA03069E422A
:1004800021D183004FF00F0C0CFA03F7BC4305FA9F
:1004900003FC4CEA040491F803C0BCF1280F05D119
:1004A00000F1080C08FA0CF8C2F8148091F803C0A7
:1004B000BCF1480F07D100F1080C4FF0010808FA11
:1004C0000CF8C2F81080401C0828CED35460BDE858
:1004D000F08100BFFEE700BFFEE7704770470000F5
:1004E00029B1064A52690243044B5A6104E0034AA7
:1004F00052698243014B5A6170470000001002406C
:1005000029B1064A92690243044B9A6104E0034A06
:1005100092698243014B9A617047000000100240CB
:1005200030B500210022002400232D4D6D6805F018
:100530000C0121B1042905D0082923D105E0294D5A
:10054000056022E0274D05601FE0254D6D6805F42C
:100550007012234D6D6805F48034022505EB92423C
:100560001CB9214D554305600BE01D4D6D6805F428
:1005700000351DB11C4D5543056002E0194D554332
:10058000056002E0174D056000BF00BF144D6D68A7
:1005900005F0F0010909154D6B5C0568DD4045600B
:1005A0000F4D6D6805F4E061090A104D6B5C4568FC
:1005B000DD4085600A4D6D6805F46051C90A0B4D38
:1005C0006B5C4568DD40C560054D6D6805F44041D4
:1005D000890B074D6B5CC568B5FBF3F5056130BD54
:1005E0000010024000127A0000093D0000000020C7
:1005F0001000002008B501214FF4F070FFF780FFD4
:1006000018208DF8030003208DF802000120ADF8BA
:10061000000069469448FFF7D1FE0220ADF80000C3
:1006200069469148FFF7CAFE0420ADF8000069460C
:100630008D48FFF7C3FE0820ADF8000069468A48E0
:10064000FFF7BCFE1020ADF8000069468648FFF7B2
:10065000B5FE2020ADF8000069468348FFF7AEFEE6
:100660004FF48050ADF8000069467F48FFF7A6FEC2
:100670004FF40050ADF8000069467B48FFF79EFE3E
:100680004FF48040ADF8000069467748FFF796FECA
:100690004FF40040ADF8000069467348FFF78EFE46
:1006A0000120ADF8000069467048FFF787FE022080
:1006B000ADF8000069466D48FFF780FE0420ADF8F4
:1006C000000069466948FFF779FE0820ADF8000090
:1006D00069466648FFF772FE1020ADF800006946D3
:1006E0006248FFF76BFE2020ADF8000069465F48C6
:1006F000FFF764FE4FF40060ADF8000069465C4807
:10070000FFF75CFE4FF48050ADF800006946584892
:10071000FFF754FE4FF40050ADF80000694654480E
:10072000FFF74CFE4FF48040ADF80000694650489A
:10073000FFF744FE4FF40040ADF8000069464C4816
:10074000FFF73CFE0120ADF8000069464848FFF77E
:1007500035FE0220ADF8000069464548FFF72EFE41
:100760008020ADF8000069464248FFF727FE4FF4AD
:100770008070ADF8000069463E48FFF71FFE4FF459
:100780000070ADF8000069463A48FFF717FE4FF4D5
:100790008060ADF8000069463648FFF70FFE4FF461
:1007A0000060ADF8000069463248FFF707FE4FF4DD
:1007B0008050ADF8000069462E48FFF7FFFD4FF46A
:1007C0000050ADF8000069462A48FFF7F7FD4FF4E6
:1007D0008040ADF8000069462648FFF7EFFD4FF472
:1007E0000040ADF8000069462248FFF7E7FD4FF4EE
:1007F0008070ADF8000069461D48FFF7DFFD4FF43B
:100800000070ADF8000069461948FFF7D7FD4FF4B6
:100810008060ADF8000069461548FFF7CFFD4FF442
:100820008060ADF8000069461048FFF7C7FD202042
:10083000ADF8000069460E48FFF7C0FD1020ADF886
:10084000000069460A48FFF7B9FD0220ADF8000034
:1008500069460848FFF7B2FD0120ADF8000069467F
:100860000448FFF7ABFD08BD001C0140002001401B
:10087000001401400018014010B5FFF7BBFEFFF760
:1008800066FD10BD704710B500F002F810BD000005
:100890000CB50020019000903348006840F480308F
:1008A0003149086000BF3048006800F40030009013
:1008B0000198401C0190009818B90198B0F5A06FFC
:1008C000F1D12948006800F4003010B101200090F7
:1008D00001E0002000900098012843D123480068DF
:1008E00040F01000214908600846006820F003002D
:1008F00008600846006840F0020008601A48406836
:10090000194948600846406848600846406840F415
:10091000806048600846406820F47C1048600846C3
:10092000406840F4E81048600846006840F0807075
:10093000086000BF0C48006800F000700028F9D083
:100940000948406820F003000749486008464068AD
:1009500040F00200486000BF0348406800F00C000F
:100960000828F9D10CBD0000001002400020024010
:100970007047000010B51348006840F001001149AD
:10098000086008464068104908400E49486008461B
:1009900000680E4908400B4908600846006820F4CA
:1009A000802008600846406820F4FE0048604FF44C
:1009B0001F008860FFF767FF4FF000600449086080
:1009C00010BD0000001002400000FFF8FFFFF6FE1F
:1009D00008ED00E021B1828942F40052828104E0F6
:1009E00082894DF6FF731A408281704700B585B049
:1009F00001210420FFF784FD01218803FFF780FD1A
:100A000018208DF813004FF40070ADF8100003208B
:100A10008DF8120004A91448FFF7D0FC4FF4806051
:100A2000ADF8100004208DF8130004A90E48FFF75C
:100A3000C5FC0020ADF80C000C20ADF80A004FF406
:100A4000E13000900020ADF80800ADF80600ADF8E8
:100A500004006946054800F019F801210348FFF732
:100A6000B9FF05B000BD000000080140003801409A
:100A700002460020B1F5007F00D100BF13880B4073
:100A80000BB1012000E00020704700002DE9F04785
:100A900086B005460E460024A24600BFA1460027A8
:100AA000B08900B100BF2F462C8A4CF6FF7004407D
:100AB000F08804432C82AC894EF6F3100440B088D1
:100AC00031890843718908430443AC81AC8A4FF6ED
:100AD000FF400440B0890443AC8201A8FFF720FD29
:100AE0001F48874202D1DDF810A001E0DDF80CA01C
:100AF000A88900F4004040B10AEBCA0000EB0A10DC
:100B000031684900B0FBF1F807E00AEBCA0000EBDE
:100B10000A1031688900B0FBF1F86420B8FBF0F0EE
:100B200004012009642101FB1089A88900F4004018
:100B300040B1322000EBC900B0FBF1F000F007003B
:100B4000044308E0322000EB09106421B0FBF1F00F
:100B500000F00F0004432C8106B0BDE8F0870000D0
:100B600000380140C1F308028280704770B5044626
:100B70000D4629462046FFF7F5FF00BF802120469D
:100B8000FFF776FF0028F9D070BD00BFFEE7000038
:100B90000FB4054B10B503A9044A029800F018F8E9
:100BA00010BC5DF814FB0000910E0008140000203A
:100BB00002E008C8121F08C1002AFAD17047704726
:100BC000002001E001C1121F002AFBD17047000084
:100BD0002DE9FF4F8DB09B460F460446002606E0E8
:100BE00025280BD05A460F999047641C761C207814
:100BF0000028F5D111B03046BDE8F08F0025A84699
:100C00000122984900E0054314F8013F203B02FA15
:100C100003F00842F7D120782E2817D114F8010FDD
:100C200045F004052A280ED06FF02F022078A0F19D
:100C3000300109290AD808EB880102EB410100EBD9
:100C40000108641CF2E757F8048B641C20786C28B8
:100C50000DD004DC4C2812D06A2811D104E074288D
:100C60000DD07A280CD10AE045F4001507E0617830
:100C700045F48015814202D1641C05F58015641C81
:100C80002278692A45D008DC002AB3D0582A69D0D6
:100C9000632A10D0642A08D13BE0702A67D0732AF7
:100CA00013D0752A5CD0782A5CD010465A460F992A
:100CB0009047761CD3E017F8040B8DF80000002055
:100CC0008DF80100E946012003E057F8049B4FF03E
:100CD000FF3069074FF0000501D40AE06D1C45455F
:100CE0000DDA8542FADB19F805100029F6D106E085
:100CF0006D1C8542FCDB19F805100029F8D12E4443
:100D000004E019F8010B5A460F9990476D1EF8D26E
:100D1000A5E00A200021CDE90801C5F30250022810
:100D20000DD001CFC117031E71F100030DDA4FF092
:100D3000000CD0EB0C006CEB01012D2308E0FF1D33
:100D400027F00707F7E80201EDE72B0504D52B2371
:100D50008DF8283001233BE0EB0739D02023F7E75B
:100D60000A2000E010200021CDE9080107E0102052
:100D7000002145F00405CDE908014FF00808C5F34E
:100D8000025002280FD001CF00214FF0000A2B079C
:100D90001FD5702A0DD0DDE908C38CF0100C5CEA79
:100DA000030C0CD015E0FF1D27F00707F7E8020140
:100DB000EBE740228DF828204FF0010A0BE050EAC3
:100DC000010306D030238DF828308DF82920022326
:100DD0009A46582A04D024A20DF120090B9209E06A
:100DE00026A2F9E7DDE90823FFF7BEF90B9B9B5C20
:100DF00009F8013D50EA0102F4D1ADEB09002030C1
:100E00000890680701D44FF001080899884502DD71
:100E1000A8EB010000E000208046002506E00AA8BB
:100E20005A46405D0F9990476D1C761C5545F6DB80
:100E300004E030205A460F999047761CB8F1000123
:100E4000A8F10108F5DC05E019F8010B5A460F99E5
:100E50009047761C0899481E08900029F4DC641C11
:100E6000C5E6000009280100303132333435363709
:100E700038396162636465660000000030313233E6
:100E80003435363738394142434445460000000086
:100E900070B504460D46E1B20548FFF767FE00BF96
:100EA00080210348FFF7E4FD0028F9D0204670BDFB
:100EB00000380140FFF79AFDFFF7DEFC09A0FFF7BD
:100EC00067FE4FF0D044FF2020600BA02168FFF7A1
:100ED0005FFE0F4A104601780EA0FFF759FE00BFD3
:100EE000FEE700000D0A205352414DB2E2CAD4B3CE
:100EF000CCD0F20D0A0000000D0A20B6C1B3F6B541
:100F0000C4CAFDBEDDCEAAA3BA307825780D0A008A
:100F1000500000680D0A2061643D307825642C6122
:100F20006420616464723D307825780D0A00000009
:100F3000500F00080000002018000000B00B00084F
:100F4000680F00081800002000040000C00B000813
:100F5000000000000102030401020304060708095F
:080F6000020406080000000075
:0400000508000131BD
:00000001FF
