:0300000002031ADE
:0C031A00787FE4F6D8FD75813A0203619B
:1005CF00061C0101050900000408010200000123B7
:1005DF00000122000A123F065B4F666D7D077F6F99
:0B05EF00060CFEFDFBF7EFDF0124000F
:10000E0075270AD288758901758C0B758ADC75A8DF
:10001E0083D28CC2B7E5226007640160030200E65A
:10002E00852726E526D39400404AE4F525740C2551
:10003E0025F8E6F590E52564016005E525B4031085
:10004E00741C2525F8E62412F8E64480F580800C11
:10005E00741C2525F8E62412F8E6F5807F017E0053
:10006E007D007C0012049D0525E525C3940640BD48
:10007E00152680AFE5226401709B852726E526D3E1
:10008E0094004091E4F525E523B525057590FF8094
:10009E0008740C2525F8E6F590E52564016005E564
:1000AE0025B40310741C2525F8E62412F8E64480C6
:1000BE00F580800C741C2525F8E62412F8E6F580F0
:1000CE007F017E007D007C0012049D0525E525C381
:1000DE00940640B3152680A5E52264026003020053
:1000EE0023852726E526D394004042E4F525740C9B
:1000FE002525F8E6F590E525B4010E2408F8E6244A
:10010E0012F8E64480F580800C74082525F8E62464
:10011E0012F8E6F5807F017E007D007C0012049DC2
:10012E000525E525C3940440C5152680B7852726E9
:10013E00E526D394005003020023E4F525E523B50C
:10014E0025057590FF8008740C2525F8E6F590E5D9
:10015E0025B4010E2408F8E62412F8E64480F58052
:10016E00800C74082525F8E62412F8E6F5807F0148
:10017E007E007D007C0012049D0525E525C39404B8
:06018E0040BB152680AA0B
:030003000205579C
:10055700C0E0C0F0C083C082C0D075D000C000C06A
:1005670001C002C003C004C005C006C0071205953C
:10057700120194D007D006D005D004D003D002D002
:0E05870001D000D0D0D082D083D0F0D0E032AE
:03000B0002050AE1
:10050A00C0E0C0F0C083C082C0D075D000C000C0B7
:10051A0001C002C003C004C005C006C007758C0B29
:10052A00758ADC0524E524C394104006752400125C
:10053A0003A6D007D006D005D004D003D002D0013C
:0D054A00D000D0D0D082D083D0F0D0E032ED
:1003A600E521C3940950040521805CE4F521E5208C
:1003B600C3940550040520804EE4F520E51FC39440
:1003C600095004051F8040E4F51FE51EC39405503F
:1003D60004051E8032E4F51EE51CC394025007E5B1
:1003E6001DC39409400CE51CB4020BE51DC3940320
:1003F6005004051D8011E4F51DE51CC3940250044C
:10040600051C8003E4F51CE51CB50812E51DB509BD
:100416000DE51EB50A08E51FB50B03D2B722C2B714
:0104260022B3
:10049D008F2B8E2A8D298C28E4FFFEFDFCAB2BAA19
:1004AD002AA929A828D31205FB4051E4752F64F51C
:1004BD002EF52DF52CE4FFFEFDFCAB2FAA2EA92D5C
:1004CD00A82CD31205FB401AE52F24FFF52FE52E9E
:1004DD0034FFF52EE52D34FFF52DE52C34FFF52CED
:1004ED0080D3E52B24FFF52BE52A34FFF52AE529EA
:0C04FD0034FFF529E52834FFF528809C29
:0105090022CF
:100595007530FFE4F531F532E5A0F4602A12042741
:1005A500E5A0F4602285A030C3E5329414E53164FA
:1005B5008094805012E5A0F4600D1204270532E501
:0905C5003270E5053180E1AF3030
:0105CE00220A
:080427007F017E007D007C00D6
:10042F008F368E358D348C33E4FFFEFDFCAB36AA50
:10043F0035A934A833D31205FB4052E4753A287519
:10044F003901F538F537E4FFFEFDFCAB3AAA39A9BF
:10045F0038A837D31205FB401AE53A24FFF53AE5E1
:10046F003934FFF539E53834FFF538E53734FFF522
:10047F003780D3E53624FFF536E53534FFF535E51E
:0D048F003434FFF534E53334FFF533809B42
:01049C00223D
:10019400EF240970030202FA24FC70030202D9243A
:1001A400FE6034146003020319E522B40110741CC8
:1001B4002523F8E6D3940050030203191622E522FE
:1001C4006402600302031974082523F8E6D394003B
:1001D40050030203191622E522640160030202633C
:1001E400E523146033146057146064146051146080
:1001F4005E24056003020319E51CC3940250020542
:100204001CE51C64026003020319E51DD39403502A
:1002140003020319751D0322E51CC39402500AE569
:100224001DC394095003051D22E51C6402600302EA
:100234000319E51DC394034003020319051D227429
:100244001C2523F8E6C3940540030203190622740F
:100254001C2523F8E6C3940940030203190622E58A
:100264002264026003020319E52314602D14604B19
:1002740014605524036003020319E508C394025073
:10028400020508E50864026003020319E509D39432
:1002940003500302031975090322E508C3940250AD
:1002A4000AE509C394095003050922E508640270AC
:1002B40064E509C39403505D05092274082523F8F5
:1002C400E6C39405504F062274082523F8E6C39428
:1002D4000950420622E522B4010B0523E5236406F6
:1002E4007033F52322E5226402702A0523E5236492
:1002F400047022F52322E52214600C1460122402F7
:1003040070137522018003752202E4F523C28C2246
:06031400E4F522D28C2268
:1003260002000EE493A3F8E493A34003F68001F2DF
:1003360008DFF48029E493A3F85407240CC8C333D8
:10034600C4540F4420C8834004F456800146F6DFA7
:10035600E4800B01020408102040809005CFE47E63
:10036600019360BCA3FF543F30E509541FFEE4939C
:10037600A360010ECF54C025E060A840B8E493A363
:10038600FAE493A3F8E493A3C8C582C8CAC583CA8E
:10039600F0A3C8C582C8CAC583CADFE9DEE780BE46
:0105FA000000
:1005FB00EB9FF5F0EA9E42F0E99D42F0E89C45F056
:01060B0022CC
:00000001FF
