:03000000020B0CE4
:0C0B0C00787FE4F6D8FD75813A020B53A7
:100DC100061C0101050900000408010200000123BD
:100DD100000122000A123F065B4F666D7D077F6F9F
:0B0DE100060CFEFDFBF7EFDF01240015
:1008000075270AD288758901758C0B758ADC75A8E5
:1008100083D28CC2B7E5226007640160030208D866
:10082000852726E526D39400404AE4F525740C2557
:1008300025F8E6F590E52564016005E525B403108B
:10084000741C2525F8E62412F8E64480F580800C17
:10085000741C2525F8E62412F8E6F5807F017E0059
:100860007D007C00120C8F0525E525C3940640BD54
:10087000152680AFE5226401709B852726E526D3E7
:1008800094004091E4F525E523B525057590FF809A
:1008900008740C2525F8E6F590E52564016005E56A
:1008A00025B40310741C2525F8E62412F8E64480CC
:1008B000F580800C741C2525F8E62412F8E6F580F6
:1008C0007F017E007D007C00120C8F0525E525C38D
:1008D000940640B3152680A5E52264026003020851
:1008E00015852726E526D394004042E4F525740CAF
:1008F0002525F8E6F590E525B4010E2408F8E62450
:1009000012F8E64480F580800C74082525F8E6246A
:1009100012F8E6F5807F017E007D007C00120C8FCE
:100920000525E525C3940440C5152680B7852726EF
:10093000E526D394005003020815E4F525E523B518
:1009400025057590FF8008740C2525F8E6F590E5DF
:1009500025B4010E2408F8E62412F8E64480F58058
:10096000800C74082525F8E62412F8E6F5807F014E
:100970007E007D007C00120C8F0525E525C39404C4
:0609800040BB152680AA11
:03000300020D49A2
:100D4900C0E0C0F0C083C082C0D075D000C000C070
:100D590001C002C003C004C005C006C007120D8748
:100D6900120986D007D006D005D004D003D002D00E
:0E0D790001D000D0D0D082D083D0F0D0E032B4
:03000B00020CFCE8
:100CFC00C0E0C0F0C083C082C0D075D000C000C0BE
:100D0C0001C002C003C004C005C006C007758C0B2F
:100D1C00758ADC0524E524C3941040067524001262
:100D2C000B98D007D006D005D004D003D002D00148
:0D0D3C00D000D0D0D082D083D0F0D0E032F3
:100B9800E521C3940950040521805CE4F521E52092
:100BA800C3940550040520804EE4F520E51FC39446
:100BB800095004051F8040E4F51FE51EC394055045
:100BC80004051E8032E4F51EE51CC394025007E5B7
:100BD8001DC39409400CE51CB4020BE51DC3940326
:100BE8005004051D8011E4F51DE51CC39402500452
:100BF800051C8003E4F51CE51CB50812E51DB509C4
:100C08000DE51EB50A08E51FB50B03D2B722C2B71A
:010C180022B9
:100C8F008F2B8E2A8D298C28E4FFFEFDFCAB2BAA1F
:100C9F002AA929A828D3120DED4051E4752F64F528
:100CAF002EF52DF52CE4FFFEFDFCAB2FAA2EA92D62
:100CBF00A82CD3120DED401AE52F24FFF52FE52EAA
:100CCF0034FFF52EE52D34FFF52DE52C34FFF52CF3
:100CDF0080D3E52B24FFF52BE52A34FFF52AE529F0
:0C0CEF0034FFF529E52834FFF528809C2F
:010CFB0022D6
:100D87007530FFE4F531F532E5A0F4602A120C194D
:100D9700E5A0F4602285A030C3E5329414E5316400
:100DA7008094805012E5A0F4600D120C190532E50D
:090DB7003270E5053180E1AF3036
:010DC0002210
:080C19007F017E007D007C00DC
:100C21008F368E358D348C33E4FFFEFDFCAB36AA56
:100C310035A934A833D3120DED4052E4753A287525
:100C41003901F538F537E4FFFEFDFCAB3AAA39A9C5
:100C510038A837D3120DED401AE53A24FFF53AE5ED
:100C61003934FFF539E53834FFF538E53734FFF528
:100C71003780D3E53624FFF536E53534FFF535E524
:0D0C81003434FFF534E53334FFF533809B48
:010C8E002243
:10098600EF24097003020AEC24FC7003020ACB244C
:10099600FE6034146003020B0BE522B40110741CD4
:1009A6002523F8E6D394005003020B0B1622E5220A
:1009B60064026003020B0B74082523F8E6D3940047
:1009C6005003020B0B1622E52264016003020A554E
:1009D600E523146033146057146064146051146086
:1009E6005E24056003020B0BE51CC394025002054E
:1009F6001CE51C64026003020B0BE51DD394035037
:100A060003020B0B751D0322E51CC39402500AE575
:100A16001DC394095003051D22E51C6402600302F0
:100A26000B0BE51DC394034003020B0B051D22743B
:100A36001C2523F8E6C394054003020B0B0622741B
:100A46001C2523F8E6C394094003020B0B0622E596
:100A56002264026003020B0BE52314602D14604B25
:100A660014605524036003020B0BE508C39402507F
:100A7600020508E50864026003020B0BE509D3943E
:100A8600035003020B0B75090322E508C3940250B9
:100A96000AE509C394095003050922E508640270B2
:100AA60064E509C39403505D05092274082523F8FB
:100AB600E6C39405504F062274082523F8E6C3942E
:100AC6000950420622E522B4010B0523E5236406FC
:100AD6007033F52322E5226402702A0523E5236498
:100AE600047022F52322E52214600C1460122402FD
:100AF60070137522018003752202E4F523C28C224D
:060B0600E4F522D28C226E
:100B1800020800E493A3F8E493A34003F68001F2EB
:100B280008DFF48029E493A3F85407240CC8C333DE
:100B3800C4540F4420C8834004F456800146F6DFAD
:100B4800E4800B0102040810204080900DC1E47E6F
:100B5800019360BCA3FF543F30E509541FFEE493A2
:100B6800A360010ECF54C025E060A840B8E493A369
:100B7800FAE493A3F8E493A3C8C582C8CAC583CA94
:100B8800F0A3C8C582C8CAC583CADFE9DEE780BE4C
:010DEC000006
:100DED00EB9FF5F0EA9E42F0E99D42F0E89C45F05C
:010DFD0022D3
:00000001FF
